:020000040800F2
:100000000000022035260008CD220008D922000871
:10001000DF220008E5220008EB22000800000000B3
:10002000000000000000000000000000F1220008B5
:10003000FD2200080000000009230008091F000835
:1000400085260008852600088526000885260008E4
:1000500085260008852600088526000885260008D4
:1000600085260008852600088526000885260008C4
:1000700085260008852600088526000885260008B4
:1000800085260008852600088526000885260008A4
:100090008526000885260008852600088526000894
:1000A0008526000885260008852600088526000884
:1000B0008526000885260008852600088526000874
:1000C0008526000885260008852600088526000864
:1000D0008526000885260008852600088526000854
:1000E0008526000885260008852600088526000844
:1000F0008526000885260008852600088526000834
:100100008526000885260008852600088526000823
:100110009924000885260008852600088526000801
:100120008526000885260008852600088526000803
:1001300085260008852600088526000885260008F3
:1001400085260008852600088526000885260008E3
:1001500085260008852600088526000885260008D3
:1001600085260008852600088526000885260008C3
:100170008526000885260008852600080000000066
:08018000852600088526000811
:1001C00010B5054C237833B9044B13B10448AFF391
:1001D00000800123237010BDB8090020000000003A
:1001E0000451000808B5034B1BB103490348AFF3A2
:1001F000008008BD00000000BC0900200451000878
:1002000053B94AB9002908BF00281CBF4FF0FF317D
:100210004FF0FF3000F06CB9ADF1080C6DE904CE81
:1002200000F006F8DDF804E0DDE9022304B07047D1
:100230002DE9F047089E0D4604468E46002B40F0FF
:1002400082808A42174646D9B2FA82F24AB1C2F196
:10025000200105FA02F320FA01F1974041EA030E6A
:1002600094404FEA1748230CBEFBF8FCB9B208FBD8
:100270001CEE43EA0E430CFB01F098420AD9FB182E
:100280000CF1FF3580F01681984240F21381ACF1F9
:10029000020C3B441B1AA4B2B3FBF8F008FB10336A
:1002A00044EA034400FB01F1A14209D93C1900F1E1
:1002B000FF3380F00181A14240F2FE8002383C44CD
:1002C000641A40EA0C4000211EB1D4400023C6E964
:1002D0000043BDE8F08702B9FFDEB2FA82F2002ADD
:1002E0004FD1CB1B4FEA174E1FFA87F80121B3FB02
:1002F000FEFC250C0EFB1C3345EA034508FB0CF302
:10030000AB4207D97D190CF1FF3002D2AB4200F2AB
:10031000E7808446ED1AA3B2B5FBFEF00EFB105544
:1003200043EA054408FB00F8A04507D93C1900F151
:10033000FF3302D2A04500F2D7801846A4EB080490
:1003400040EA0C40C0E78B4208D9002E00F0AF8095
:100350000021C6E900050846BDE8F087B3FA83F13D
:1003600000294BD1AB4202D3824200F2B780841AFB
:1003700065EB030301209E46002EAAD0C6E9004E7D
:10038000A7E7C2F1200C01FA02F3974020FA0CF023
:100390004FEA174E21FA0CFC1843BCFBFEF1050C8A
:1003A0000EFB11CC1FFA87F845EA0C4501FB08F358
:1003B000AB4204FA02F409D97D1901F1FF3C80F047
:1003C0008B80AB4240F2888002393D44EB1A85B203
:1003D000B3FBFEF00EFB103345EA034500FB08F3C8
:1003E000AB4207D97D1900F1FF3C71D2AB426FD906
:1003F00002383D44EB1A40EA014178E7C1F1200C94
:100400008B4022FA0CF71F4320FA0CF405FA01F393
:100410004FEA174E25FA0CF51C43230CB5FBFEF9E9
:100420001FFA87F80EFB195543EA054509FB08FA40
:10043000AA4502FA01F200FA01F308D97D1909F17F
:10044000FF3047D2AA4545D9A9F102093D44A5EBA1
:100450000A05A4B2B5FBFEF00EFB105544EA0544B4
:1004600000FB08F8A04507D93C1900F1FF352DD253
:10047000A0452BD902383C4440EA0940A4EB0804CB
:10048000A0FB02894C45C6464D4619D316D05EB135
:10049000B3EB0E0264EB050404FA0CFCCA404CEA10
:1004A0000202CC40C6E900240021BDE8F0873146B5
:1004B00030460EE7AC46EDE6184601E74345E6D286
:1004C000B8EB020E69EB07050138E0E72846D3E7F1
:1004D00060468FE78146BAE7614677E708464BE713
:1004E000ACF1020C3D4415E702383C4426E700BF5E
:1004F000704700BF00000000000000000000000086
:1005000090F800F06DE9024520F007016FF0000C53
:1005100010F0070491F820F040F049804FF00004FB
:100520006FF00700D1E9002391F840F000F10800D6
:1005300082FA4CF2A4FA8CF283FA4CF3A2FA8CF30E
:100540004BBBD1E9022382FA4CF200F10800A4FA75
:100550008CF283FA4CF3A2FA8CF3E3B9D1E90423C9
:1005600082FA4CF200F10800A4FA8CF283FA4CF300
:10057000A2FA8CF37BB9D1E9062301F1200182FABA
:100580004CF200F10800A4FA8CF283FA4CF3A2FAC0
:100590008CF3002BC6D0002A04BF04301A4612BACE
:1005A000B2FA82F2FDE8024500EBD2007047D1E9D1
:1005B000002304F00305C4F100004FEAC50514F060
:1005C000040F91F840F00CFA05F562EA05021CBF31
:1005D00063EA050362464FF00004A9E7000000004B
:1005E00001F0FF01102A2BDB10F0070F08D010F8E4
:1005F000013B013A8B422DD010F0070F42B3F6D1E8
:10060000F0B441EA012141EA014122F007047FF000
:1006100000070023F0E80256083C85EA010586EA57
:10062000010685FA47F5A3FA87F586FA47F6A5FA93
:1006300087F68EB9EED1F0BC01F0FF0102F007029F
:1006400032B110F8013B013A83EA010313B1F8D14A
:100650000020704701387047002D06BF354603382B
:10066000073815F0010F07D1013015F4807F02BF64
:10067000013015F4C03F0130F0BC0138704700BFB5
:10068000844641EA000313F003036DD1403A41D39D
:1006900051F8043B40F8043B51F8043B40F8043B5C
:1006A00051F8043B40F8043B51F8043B40F8043B4C
:1006B00051F8043B40F8043B51F8043B40F8043B3C
:1006C00051F8043B40F8043B51F8043B40F8043B2C
:1006D00051F8043B40F8043B51F8043B40F8043B1C
:1006E00051F8043B40F8043B51F8043B40F8043B0C
:1006F00051F8043B40F8043B51F8043B40F8043BFC
:1007000051F8043B40F8043B51F8043B40F8043BEB
:10071000403ABDD2303211D351F8043B40F8043B8B
:1007200051F8043B40F8043B51F8043B40F8043BCB
:1007300051F8043B40F8043B103AEDD20C3205D39B
:1007400051F8043B40F8043B043AF9D2043208D093
:10075000D2071CBF11F8013B00F8013B01D30B8805
:1007600003806046704700BF082A13D38B078DD0E3
:1007700010F003038AD0C3F10403D21ADB071CBFB5
:1007800011F8013B00F8013B80D331F8023B20F81F
:10079000023B7BE7043AD9D3013A11F8013B00F858
:1007A000013BF9D20B7803704B7843708B788370E0
:1007B0006046704780B500AF0E4B1B680D4A43F48E
:1007C000007313600B4B1B680A4A43F48063136089
:1007D000084B1B68074A43F480731360032000F042
:1007E0002FF9002000F008F801F04AFD0023184618
:1007F00080BD00BF003C024080B582B000AF786091
:10080000124B1A68124B1B7819464FF47A73B3FBDC
:10081000F1F3B2FBF3F3184600F047F90346002B5F
:1008200001D001230EE07B680F2B0AD800227968E3
:100830004FF0FF3000F00FF9064A7B681360002389
:1008400000E0012318460837BD4680BD080000209F
:10085000040000200000002080B400AF024B1B68A1
:100860001846BD4680BC7047D409002080B485B0CE
:1008700000AF78607B6803F00703FB600C4BDB681C
:10088000BB60BA684FF6FF031340BB60FB681A02F7
:10089000BB68134343F0BF6343F40033BB60044AB7
:1008A000BB68D36000BF1437BD4680BC704700BF33
:1008B00000ED00E080B400AF044BDB681B0A03F0DE
:1008C00007031846BD4680BC704700BF00ED00E03E
:1008D00080B483B000AF0346FB7197F90730002B5B
:1008E0000BDBFB7903F01F02064997F907305B0920
:1008F000012000FA02F241F8232000BF0C37BD4668
:1009000080BC704700E100E080B483B000AF0346D4
:10091000FB7197F90730002B0CDBFB7903F01F020A
:10092000074997F907305B09012000FA02F26033AA
:1009300041F8232000BF0C37BD4680BC704700BF84
:1009400000E100E080B483B000AF03463960FB7182
:1009500097F90730002B0ADB3B68DAB20C4997F9AC
:1009600007301201D2B20B4483F800230AE03B683F
:10097000DAB20849FB7903F00F03043B1201D2B24B
:100980000B441A7600BF0C37BD4680BC704700BFD1
:1009900000E100E000ED00E080B489B000AFF86055
:1009A000B9607A60FB6803F00703FB61FB69C3F180
:1009B0000703042B28BF0423BB61FB690433062B08
:1009C00002D9FB69033B00E000237B614FF0FF325B
:1009D000BB6902FA03F3DA43BB681A407B699A40A9
:1009E0004FF0FF317B6901FA03F3D9437B680B4079
:1009F000134318462437BD4680BC704780B582B08B
:100A000000AF78607B68013BB3F1807F01D30123A5
:100A10000FE00A4A7B68013B53600F214FF0FF3023
:100A2000FFF790FF054B00229A60044B07221A60E3
:100A3000002318460837BD4680BD00BF10E000E027
:100A400080B582B000AF78607868FFF70FFF00BF15
:100A50000837BD4680BD80B586B000AF0346B9609B
:100A60007A60FB7300237B61FFF724FF78617A686B
:100A7000B9687869FFF790FF024697F90F30114681
:100A80001846FFF75FFF00BF1837BD4680BD80B531
:100A900082B000AF0346FB7197F907301846FFF7A5
:100AA00017FF00BF0837BD4680BD80B582B000AFDC
:100AB00078607868FFF7A2FF034618460837BD46FE
:100AC00080BD80B582B000AF0346FB7197F9073057
:100AD0001846FFF719FF00BF0837BD4680BD00006C
:100AE00080B489B000AF7860396000237B61002357
:100AF0003B610023BB610023FB616BE10122FB69C9
:100B000002FA03F37B613B681B687A6913403B611F
:100B10003A697B699A4240F05A813B685B68012BD5
:100B20000BD03B685B68022B07D03B685B68112BDE
:100B300003D03B685B68122B30D17B689B68BB613C
:100B4000FB695B00032202FA03F3DB43BA6913403B
:100B5000BB613B68DA68FB695B0002FA03F3BA69C0
:100B60001343BB617B68BA699A607B685B68BB6151
:100B70000122FB6902FA03F3DB43BA691340BB614C
:100B80003B685B681B0903F00102FB6902FA03F38F
:100B9000BA691343BB617B68BA695A607B68DB68DA
:100BA000BB61FB695B00032202FA03F3DB43BA6912
:100BB0001340BB613B689A68FB695B0002FA03F370
:100BC000BA691343BB617B68BA69DA603B685B68EA
:100BD000022B03D03B685B68122B23D1FB69DA0838
:100BE0007B68083253F82230BB61FB6903F00703CE
:100BF0009B000F2202FA03F3DB43BA691340BB6187
:100C00003B681A69FB6903F007039B0002FA03F3D0
:100C1000BA691343BB61FB69DA087B680832B969BA
:100C200043F822107B681B68BB61FB695B000322F1
:100C300002FA03F3DB43BA691340BB613B685B68AC
:100C400003F00302FB695B0002FA03F3BA69134382
:100C5000BB617B68BA691A603B685B6803F08053CC
:100C6000002B00F0B4800023FB605F4B5B6C5E4A9E
:100C700043F4804353645C4B5B6C03F48043FB6040
:100C8000FB685A4AFB699B08023352F82330BB6168
:100C9000FB6903F003039B000F2202FA03F3DB431B
:100CA000BA691340BB617B68514A93422BD07B6881
:100CB000504A934225D07B684F4A93421FD07B68AD
:100CC0004E4A934219D07B684D4A934213D07B68B9
:100CD0004C4A93420DD07B684B4A934207D07B68C5
:100CE0004A4A934201D107230EE008230CE0062371
:100CF0000AE0052308E0042306E0032304E00223BE
:100D000002E0012300E00023FA6902F003029200EE
:100D10009340BA691343BB613449FB699B080233B2
:100D2000BA6941F823203A4B1B68BB613B69DB433E
:100D3000BA691340BB613B685B6803F48033002BE6
:100D400003D0BA693B691343BB61314ABB69136085
:100D50002F4B5B68BB613B69DB43BA691340BB61E6
:100D60003B685B6803F40033002B03D0BA693B692E
:100D70001343BB61264ABB695360254B9B68BB612B
:100D80003B69DB43BA691340BB613B685B6803F4B2
:100D90008013002B03D0BA693B691343BB611C4A23
:100DA000BB6993601A4BDB68BB613B69DB43BA6983
:100DB0001340BB613B685B6803F40013002B03D056
:100DC000BA693B691343BB61114ABB69D360FB69D4
:100DD0000133FB61FB690F2B7FF690AE00BF00BFB4
:100DE0002437BD4680BC70470038024000380140BF
:100DF000000002400004024000080240000C0240D3
:100E0000001002400014024000180240001C024082
:100E1000003C014080B483B000AF78600B467B801B
:100E20007B685A697B881A407B889A4204D17B8808
:100E30001A047B689A6102E07A887B689A6100BF35
:100E40000C37BD4680BC704780B586B000AF786077
:100E50007B68002B01D101235BE27B681B6803F0F8
:100E60000103002B75D0A34B9B6803F00C03042BEC
:100E70000CD0A04B9B6803F00C03082B12D19D4BA8
:100E80005B6803F48003B3F5800F0BD1994B1B68AB
:100E900003F40033002B5BD07B685B68002B57D1D9
:100EA000012336E27B685B68B3F5803F06D1914B46
:100EB0001B68904A43F4803313601DE07B685B68D5
:100EC000B3F5A02F0CD18B4B1B688A4A43F48023C7
:100ED0001360884B1B68874A43F4803313600BE030
:100EE000844B1B68834A23F480331360814B1B6857
:100EF000804A23F4802313607B685B68002B13D047
:100F0000FFF7AAFC386108E0FFF7A6FC02463B6940
:100F1000D31A642B01D90323FBE1764B1B6803F43E
:100F20000033002BF0D014E0FFF796FC386108E0A6
:100F3000FFF792FC02463B69D31A642B01D90323C5
:100F4000E7E16C4B1B6803F40033002BF0D100E0A9
:100F500000BF7B681B6803F00203002B63D0654B66
:100F60009B6803F00C03002B0BD0624B9B6803F0D3
:100F70000C03082B1CD15F4B5B6803F48003002B30
:100F800016D15C4B1B6803F00203002B05D07B6875
:100F9000DB68012B01D00123BBE1564B1B6823F01A
:100FA000F8027B681B69DB00524913430B603AE08F
:100FB0007B68DB68002B20D04F4B01221A60FFF7C3
:100FC0004BFC386108E0FFF747FC02463B69D31A47
:100FD000022B01D903239CE1464B1B6803F002035B
:100FE000002BF0D0434B1B6823F0F8027B681B6991
:100FF000DB00404913430B6015E03F4B00221A60B1
:10100000FFF72AFC386108E0FFF726FC02463B693F
:10101000D31A022B01D903237BE1364B1B6803F063
:101020000203002BF0D17B681B6803F00803002B40
:1010300030D07B685B69002B16D0304B01221A60E0
:10104000FFF70AFC386108E0FFF706FC02463B693F
:10105000D31A022B01D903235BE1264B5B6F03F00C
:101060000203002BF0D015E0244B00221A60FFF79A
:10107000F3FB386108E0FFF7EFFB02463B69D31A48
:10108000022B01D9032344E11A4B5B6F03F00203E7
:10109000002BF0D17B681B6803F00403002B00F0E9
:1010A000A0800023FB75134B1B6C03F08053002BB7
:1010B0000FD10023BB600F4B1B6C0E4A43F08053D3
:1010C00013640C4B1B6C03F08053BB60BB680123A3
:1010D000FB750B4B1B6803F48073002B21D1084B6D
:1010E0001B68074A43F480731360FFF7B5FB386150
:1010F00011E000BF0038024000004742800E474226
:1011000000700040FFF7A8FB02463B69D31A022B90
:1011100001D90323FDE0814B1B6803F48073002B8E
:10112000F0D07B689B68012B06D17D4B1B6F7C4AFE
:1011300043F0010313671CE07B689B68052B0CD10F
:10114000774B1B6F764A43F004031367744B1B6F96
:10115000734A43F0010313670BE0714B1B6F704A36
:1011600023F0010313676E4B1B6F6D4A23F00403DA
:1011700013677B689B68002B15D0FFF76DFB386108
:101180000AE0FFF769FB02463B69D31A41F2883255
:10119000934201D90323BCE0614B1B6F03F00203B0
:1011A000002BEED014E0FFF757FB38610AE0FFF7A1
:1011B00053FB02463B69D31A41F28832934201D96C
:1011C0000323A6E0564B1B6F03F00203002BEED166
:1011D000FB7D012B05D1524B1B6C514A23F08053F0
:1011E00013647B689B69002B00F092804C4B9B68DA
:1011F00003F00C03082B5CD07B689B69022B41D168
:10120000484B00221A60FFF727FB386108E0FFF720
:1012100023FB02463B69D31A022B01D9032378E052
:101220003F4B1B6803F00073002BF0D17B68DA6939
:101230007B681B6A1A437B685B6A9B011A437B6865
:101240009B6A5B08013B1B041A437B68DB6A1B0635
:10125000334913434B60334B01221A60FFF7FCFA0A
:10126000386108E0FFF7F8FA02463B69D31A022B0F
:1012700001D903234DE02A4B1B6803F00073002BB8
:10128000F0D045E0274B00221A60FFF7E5FA3861FD
:1012900008E0FFF7E1FA02463B69D31A022B01D9B5
:1012A000032336E01E4B1B6803F00073002BF0D1C4
:1012B0002EE07B689B69012B01D1012329E0184BAB
:1012C0009B68FB60FB6803F480027B68DB699A42E1
:1012D0001CD1FB6803F03F027B681B6A9A4215D160
:1012E000FA6847F6C07313407A68526A93420DD188
:1012F000FB6803F440327B689B6A9A4206D1FB6824
:1013000003F070627B68DB6A9A4201D0012300E03F
:10131000002318461837BD4680BD00BF007000404E
:10132000003802406000474280B584B000AF78606A
:1013300039607B68002B01D10123CCE0684B1B682E
:1013400003F00F033A689A420CD9654B3A68D2B25F
:101350001A70634B1B6803F00F033A689A4201D07E
:101360000123B8E07B681B6803F00203002B20D048
:101370007B681B6803F00403002B05D0594B9B6866
:10138000584A43F4E05393607B681B6803F00803FA
:10139000002B05D0534B9B68524A43F46043936043
:1013A000504B9B6823F0F0027B689B684D491343C8
:1013B0008B607B681B6803F00103002B44D07B68C3
:1013C0005B68012B07D1474B1B6803F40033002BEC
:1013D00019D101237FE07B685B68022B03D07B6817
:1013E0005B68032B07D13F4B1B6803F00073002B96
:1013F00009D101236FE03B4B1B6803F00203002B74
:1014000001D1012367E0374B9B6823F003027B681F
:101410005B68344913438B60FFF71EFAF8600AE0FB
:10142000FFF71AFA0246FB68D31A41F28832934258
:1014300001D903234FE02B4B9B6803F00C027B6820
:101440005B689B009A42EBD1254B1B6803F00F03AE
:101450003A689A420CD2224B3A68D2B21A70204BA8
:101460001B6803F00F033A689A4201D0012332E06F
:101470007B681B6803F00403002B08D0194B9B68A2
:1014800023F4E0527B68DB68164913438B607B686A
:101490001B6803F00803002B09D0124B9B6823F450
:1014A00060427B681B69DB000E4913438B6000F0D0
:1014B00021F802460B4B9B681B0903F00F030A49F6
:1014C000CB5C22FA03F3094A1360094B1B681846E8
:1014D000FFF792F9002318461037BD4680BD00BFC4
:1014E000003C024000380240A051000808000020E3
:1014F000000000202DE9B04384B000AF00237B60E2
:101500000023FB6000233B600023BB60674B9B68AC
:1015100003F00C03082B0DD0082B00F2BD80002B2C
:1015200002D0042B03D0B7E0614BBB60B7E0614B46
:10153000BB60B4E05D4B5B6803F03F037B605B4BDB
:101540005B6803F48003002B4DD0584B5B689B090C
:101550001A464FF0000340F2FF104FF0000102EA7C
:10156000000803EA0109404649464FF000024FF0E7
:1015700000034B0143EAD063420110461946B0EB29
:10158000080061EB09014FF000024FF000038B01EE
:1015900043EA90638201121A63EB01034FF00000EB
:1015A0004FF00001D90041EA5271D00002460B46CB
:1015B00012EB080243EB09034FF000004FF000016B
:1015C000590241EAD251500202460B4610461946D2
:1015D0007B681A464FF00003FEF712FE02460B46E8
:1015E0001346FB604AE0314B5B689B091A464FF09B
:1015F000000340F2FF104FF0000102EA000403EA8A
:101600000105204629464FF000024FF000034B0130
:1016100043EAD063420110461946001B61EB050105
:101620004FF000024FF000038B0143EA9063820108
:10163000121A63EB01034FF000004FF00001D900D4
:1016400041EA5271D00002460B46121945EB0303E2
:101650004FF000004FF00001990241EA92519002D0
:1016600002460B46104619467B681A464FF00003A7
:10167000FEF7C6FD02460B461346FB600B4B5B684C
:101680001B0C03F0030301335B003B60FA683B680B
:10169000B2FBF3F3BB6002E0054BBB6000BFBB686D
:1016A00018461037BD46BDE8B08300BF0038024081
:1016B0000024F40000127A0080B400AF024B1B68D3
:1016C0001846BD4680BC70470800002080B500AFBA
:1016D000FFF7F2FF0246054B9B689B0A03F00703E6
:1016E0000349CB5C22FA03F3184680BD0038024060
:1016F000B051000880B500AFFFF7DEFF0246054B92
:101700009B685B0B03F007030349CB5C22FA03F3EE
:10171000184680BD00380240B051000880B582B044
:1017200000AF78607B68002B01D101233FE07B682C
:1017300093F83930DBB2002B06D17B68002283F8A6
:101740003820786800F037F87B68242283F8392045
:101750007B681B68DA687B681B6822F40052DA60D9
:10176000786800F031F87B681B681A697B681B6831
:1017700022F490421A617B681B685A697B681B6877
:1017800022F02A025A617B681B68DA687B681B6852
:1017900042F40052DA607B680022DA637B68202220
:1017A00083F839207B68202283F83A2000231846EA
:1017B0000837BD4680BD80B483B000AF786000BFFD
:1017C0000C37BD4680BC70472DE9F04FBDB000AF6F
:1017D000C7F8E400D7F8E4301B681B6923F44050D5
:1017E000D7F8E430D968D7F8E4301A6840EA010342
:1017F0001361D7F8E4309A68D7F8E4301B691A43CC
:10180000D7F8E4305B691A43D7F8E430DB69134357
:10181000C7F8EC30D7F8E4301B68DB6823F41641D6
:1018200021F00C01D7F8E4301A68D7F8EC300B43FC
:10183000D360D7F8E4301B685B6923F44070D7F8B5
:10184000E4309969D7F8E4301A6840EA010353613B
:10185000D7F8E430DB69B3F5004F40F0A681D7F844
:10186000E4301A686A4B9A4206D0D7F8E4301A6816
:10187000684B9A4240F0D280FFF73CFFC7F8E8007F
:10188000D7F8E8301C464FF0000522462B46911849
:10189000C7F888105B41C7F88C30D7E922231219AA
:1018A00045EB03034FF000004FF00001D90041EA7F
:1018B0005271D00002460B461119C7F8D8106B417F
:1018C000C7F8DC30D7F8E4305B681A464FF0000305
:1018D0009118C7F880105B41C7F88430D7E92023FE
:1018E000D7E93601FEF78CFC02460B464A4BA3FBB8
:1018F00002235B091E01D7F8E8301C464FF00005B3
:1019000022462B469118B9675B41FB67D7E91E2336
:10191000121945EB03034FF000004FF00001D9000E
:1019200041EA5271D00002460B461119C7F8D01097
:101930006B41C7F8D430D7F8E4305B681A464FF0F3
:101940000003911839675B417B67D7E91C23D7E90E
:101950003401FEF755FC02460B462F4BA3FB021346
:101960005B09642101FB03F3D31ADB0032332A4AFB
:10197000A2FB03235B095B0003F4F8731E44D7F852
:10198000E83018464FF0000102460B469418BC663A
:101990005B41FB66D7E91A23121841EB03034FF0B2
:1019A00000044FF00005DD0045EA5275D4002246E0
:1019B0002B461418C7F8C8404B41C7F8CC30D7F8AD
:1019C000E4305B681A464FF00003911839665B41BA
:1019D0007B66D7E91823D7E93201FEF711FC0246EE
:1019E0000B460D4BA3FB02135B09642101FB03F3C0
:1019F000D31ADB003233084AA2FB03235B0903F04E
:101A00000702D7F8E4301B6832449A6074E200BFE2
:101A100000100140001401401F85EB51FFF756FEF6
:101A2000C7F8E800D7F8E8301C464FF0000522461A
:101A30002B469118B9655B41FB65D7E9162312194E
:101A400045EB03034FF000004FF00001D90041EADD
:101A50005271D00002460B461119C7F8C0106B41F5
:101A6000C7F8C430D7F8E4305B681A464FF000037B
:101A7000911839655B417B65D7E91423D7E93001BB
:101A8000FEF7BEFB02460B46B34BA3FB02235B09EA
:101A90001E01D7F8E8301C464FF0000522462B46C1
:101AA0009118B9645B41FB64D7E91223121945EB25
:101AB00003034FF000004FF00001D90041EA5271DA
:101AC000D00002460B461119C7F8B8106B41C7F891
:101AD000BC30D7F8E4305B681A464FF00003911829
:101AE00039645B417B64D7E91023D7E92E01FEF707
:101AF00087FB02460B46984BA3FB02135B0964214C
:101B000001FB03F3D31ADB003233934AA2FB032316
:101B10005B095B0003F4F8731E44D7F8E8301846FD
:101B20004FF0000102460B469418BC635B41FB6317
:101B3000D7E90E23121841EB03034FF000044FF0D6
:101B40000005DD0045EA5275D40022462B461418E4
:101B5000C7F8B0404B41C7F8B430D7F8E4305B6801
:101B60001A464FF00003911839635B417B63D7E954
:101B70000C23D7E92C01FEF743FB02460B46764BBC
:101B8000A3FB02135B09642101FB03F3D31ADB00FF
:101B90003233714AA2FB03235B0903F00702D7F833
:101BA000E4301B6832449A60A6E1D7F8E4301A6842
:101BB0006A4B9A4206D0D7F8E4301A68684B9A42CA
:101BC00040F0D080FFF796FDC7F8E800D7F8E8307E
:101BD0001C464FF0000522462B469118B9625B4126
:101BE000FB62D7E90A23121945EB03034FF000000B
:101BF0004FF00001D90041EA5271D00002460B4675
:101C000012EB040A43EB050BD7F8E4305B68184687
:101C10004FF000014FF000024FF000038B0043EA49
:101C20009073820050465946FEF7EAFA02460B4688
:101C3000494BA3FB02235B091E01D7F8E830184685
:101C40004FF0000102460B4694183C625B417B62F8
:101C5000D7E90823121841EB03034FF000044FF0BB
:101C60000005DD0045EA5275D40022462B461418C3
:101C7000C7F8A8404B41C7F8AC30D7F8E4305B68F0
:101C800018464FF000014FF000024FF000038B00A8
:101C900043EA90738200D7E92A01FEF7B1FA0246BF
:101CA0000B462D4BA3FB02135B09642101FB03F3DD
:101CB000D31A1B013233284AA2FB03235B0903F02A
:101CC000F0031E44D7F8E83018464FF000010246F2
:101CD0000B469418BC615B41FB61D7E906231218DF
:101CE00041EB03034FF000044FF00005DD0045EA2F
:101CF0005275D40022462B461418C7F8A0404B4119
:101D0000C7F8A430D7F8E4305B6818464FF00001FC
:101D10004FF000024FF000038B0043EA9073820003
:101D2000D7E92801FEF76CFA02460B460A4BA3FBE3
:101D300002135B09642101FB03F3D31A1B01323345
:101D4000054AA2FB03235B0903F00F02D7F8E43036
:101D50001B6832449A60CFE01F85EB5100100140B0
:101D600000140140FFF7B2FCC7F8E800D7F8E830EC
:101D70001C464FF0000522462B46911839615B4105
:101D80007B61D7E90423121945EB03034FF00000F0
:101D90004FF00001D90041EA5271D00002460B46D3
:101DA00012EB040843EB0509D7F8E4305B681846EA
:101DB0004FF000014FF000024FF000038B0043EAA8
:101DC0009073820040464946FEF71AFA02460B46D7
:101DD0004C4BA3FB02235B091E01D7F8E8301846E1
:101DE0004FF0000102460B469418BC605B41FB605B
:101DF000D7E90223121841EB03034FF000044FF020
:101E00000005DD0045EA5275D40022462B46141821
:101E1000C7F898404B41C7F89C30D7F8E4305B686E
:101E200018464FF000014FF000024FF000038B0006
:101E300043EA90738200D7E92601FEF7E1F90246F2
:101E40000B46304BA3FB02135B09642101FB03F338
:101E5000D31A1B0132332B4AA2FB03235B0903F085
:101E6000F0031E44D7F8E83018464FF00001024650
:101E70000B4694183C605B417B60D7E90023121845
:101E800041EB03034FF000044FF00005DD0045EA8D
:101E90005275D40022462B461418C7F890404B4187
:101EA000C7F89430D7F8E4305B6818464FF000016B
:101EB0004FF000024FF000038B0043EA9073820062
:101EC000D7E92401FEF79CF902460B460D4BA3FB14
:101ED00002135B09642101FB03F3D31A1B013233A4
:101EE000084AA2FB03235B0903F00F02D7F8E43092
:101EF0001B6832449A60FFE700BFF437BD46BDE877
:101F0000F08F00BF1F85EB5180B400AF044B1B68FE
:101F10000133034A136000BFBD4680BC704700BF59
:101F2000D809002080B485B000AF78600A4B002249
:101F30001A60094B1B687A681344FB6000BF064BAC
:101F40001B68FA68D31A002BF9DA00BF00BF1437F8
:101F5000BD4680BC704700BFD809002080B586B060
:101F600000AF00233B600F4B1B6B0E4A43F008038E
:101F700013630C4B1B6B03F008033B603B684FF48F
:101F800000537B600123BB600123FB6003233B61A3
:101F90003B1D19460448FEF7A3FD00BF1837BD4698
:101FA00080BD00BF00380240000C024080B500AF89
:101FB000FEF700FC00F012F800F07AF8FFF7CEFF11
:101FC00000F0B8FA4FF400510348FEF723FF6420F5
:101FD000FFF7A8FFF6E700BF000C024080B594B001
:101FE00000AF07F1200330220021184600F0A8FBC3
:101FF00007F10C0300221A605A609A60DA601A61D5
:102000000023BB60284B1B6C274A43F080531364AA
:10201000254B1B6C03F08053BB60BB6800237B60C7
:10202000224B1B68214A43F4804313601F4B1B68FB
:1020300003F480437B607B6801233B624FF4803371
:102040007B620223BB634FF48003FB6308233B6482
:102050004FF4A8737B640223BB640423FB6407F181
:1020600020031846FEF7F0FE0346002B01D000F0D7
:1020700037F80F23FB6002233B6100237B614FF4A1
:10208000A053BB614FF48053FB6107F10C030521A2
:102090001846FFF749F90346002B01D000F020F85D
:1020A00000BF5037BD4680BD003802400070004080
:1020B00080B483B000AF00237B60084B1B6B074AE2
:1020C00043F080031363054B1B6B03F080037B60BD
:1020D0007B6800BF0C37BD4680BC704700380240AB
:1020E00080B400AF00BFBD4680BC704780B584B0EF
:1020F00000AFF860B9607A60FB68002B05D1184B1F
:10210000184A0821184800F0BFFABB68002B05D117
:10211000164B144A0921144800F0B6FA7B68002BCC
:1021200005D1134B0F4A0A210F4800F0ADFA7B6826
:10213000002B10D0FB6800221A60FB6800225A6056
:10214000FB680022DA60FB687A689A60FB68BA680C
:102150001A61012300E0002318461037BD4680BDF8
:102160001C5100086851000828510008445100081B
:102170005051000880B582B000AF78600B46FB700C
:102180007B68002B05D1174B174A4121174800F0F7
:102190007BFA7B68DA687B689B689A421DD07B6813
:1021A0001A697B681B681344FA781A707B68DB68CD
:1021B0005A1C7B68DA607B681B685A1C7B681A6053
:1021C0007B681B687A689268B3FBF2F102FB01F24C
:1021D0009A1A7B681A60012300E00023184608372A
:1021E000BD4680BD1C5100087851000828510008E8
:1021F00080B582B000AF786039607B68002B05D174
:102200001B4B1C4A50211C4800F03EFA3B68002B37
:1022100005D11A4B174A5121174800F035FA7B684F
:10222000DB68002B1ED07B681A697B685B681344EF
:102230001A783B681A707B68DB685A1E7B68DA6024
:102240007B685B685A1C7B685A607B685B687A684D
:102250009268B3FBF2F102FB01F29A1A7B685A60B2
:10226000012300E0002318460837BD4680BD00BFAB
:102270001C5100088C5100082851000864510008C6
:1022800080B483B000AF00237B600F4B5B6C0E4AC1
:1022900043F4804353640C4B5B6C03F480437B60DA
:1022A0007B6800233B60084B1B6C074A43F080535C
:1022B0001364054B1B6C03F080533B603B6800BF0D
:1022C0000C37BD4680BC70470038024080B400AF78
:1022D00000BFBD4680BC704780B400AFFEE780B44D
:1022E00000AFFEE780B400AFFEE780B400AFFEE7CA
:1022F00080B400AF00BFBD4680BC704780B400AF63
:1023000000BFBD4680BC704780B400AF00BFBD4673
:1023100080BC704780B400AF01231846BD4680BC26
:10232000704780B582B000AF7860396000F0CAF9BC
:10233000034616221A604FF0FF3318460837BD4691
:1023400080BD80B582B000AF78604FF0FF31786813
:10235000FFF7E7FFFEE780B586B000AFF860B96031
:102360007A6000237B610AE0AFF300800146BB681E
:102370005A1CBA60CAB21A707B6901337B617A69F0
:102380007B689A42F0DB7B6818461837BD4680BDF3
:1023900080B586B000AFF860B9607A6000237B61D9
:1023A00009E0BB685A1CBA601B781846AFF300807E
:1023B0007B6901337B617A697B689A42F1DB7B68D8
:1023C00018461837BD4680BD80B483B000AF786032
:1023D0004FF0FF3318460C37BD4680BC704780B4C1
:1023E00083B000AF786039603B684FF400525A60A8
:1023F000002318460C37BD4680BC704780B483B0BC
:1024000000AF7860012318460C37BD4680BC70478A
:1024100080B485B000AFF860B9607A6000231846D8
:102420001437BD4680BC704780B584B000AF78607B
:10243000114B1B68002B02D10F4B104A1A600E4B38
:102440001B68FB600C4B1A687B6813446A46934216
:1024500007D900F037F903460C221A604FF0FF331A
:1024600006E0054B1A687B681344034A1360FB6857
:1024700018461037BD4680BDDC090020A812002098
:1024800080B400AF034B4FF000629A6000BFBD46BE
:1024900080BC704700ED00E080B582B000AF214BFA
:1024A0001B681B6803F02003202B0ED11D4B1B68FB
:1024B000DB6803F02003002B07D01B4B5B68FB712C
:1024C000FB7919461948FFF755FE164B1B681B6828
:1024D00003F08003802B1DD1124B1B68DB6803F0D7
:1024E0008003002B16D0BB1D19461148FFF780FE54
:1024F000034683F00103DBB2002B08D0094B1B68B5
:10250000DA68084B1B6822F08002DA6002E0BA79D0
:10251000054B5A603420FEF7D4FA00BF0837BD4699
:1025200080BD00BF08120020004C0040F40D0020C8
:10253000E009002080B588B000AF4FF480623549D3
:102540003548FFF7D3FD4FF4806234493448FFF734
:10255000CDFD0023BB60334B1B6B324A43F00103BC
:102560001363304B1B6B03F00103BB60BB68032399
:10257000FB6002233B610823FB6101237B6107F1C0
:102580000C0319462848FEF7ABFA00237B60254B65
:102590001B6C244A43F400231364224B1B6C03F48A
:1025A00000237B607B68214B4FF4E1325A601F4B64
:1025B00000229A601D4B0C225A611C4B00221A61AA
:1025C0001A4B00229A61194B0022DA61174B002244
:1025D000DA60164B164A1A601448FFF79FF8034654
:1025E000002B01D0002310E0104B1B68DA680F4B62
:1025F0001B6842F02002DA60002201213420FEF73D
:102600002AFA3420FEF743FA012318462037BD4644
:1026100080BD00BFF4090020E0090020080E002062
:10262000F40D002000380240000002400812002093
:10263000004C0040DFF834D0002103E00C4B5B5825
:10264000435004310B480C4B42189A42F6D30B4AC4
:1026500002E0002342F8043B094B9A42F9D3FFF70A
:102660000FFF00F049F8FFF7A1FC704700000220BF
:102670007453000800000020B8090020B8090020A9
:10268000A4120020FEE7000000B50A4C256814469D
:1026900085B01A460346E86844B1074D0091CDE97C
:1026A0000154064900F014F801F026F8044D2C46B8
:1026B000F4E700BF0C000020B8510008C851000822
:1026C000C4510008014B1868704700BF0C0000207F
:1026D0000EB410B583B005AB064C53F8042B019330
:1026E0000146206800F0B8F803B0BDE8104003B020
:1026F000704700BF0C00002070B50D4E0D4D761BCD
:10270000B61006D0002455F8043B01349847A64281
:10271000F9D1094E094D761B02F0F4FCB61006D033
:10272000002455F8043B01349847A642F9D170BD06
:102730006853000868530008705300086853000885
:10274000F0B4860746D0541E002A3CD0CAB20346D5
:1027500001E0013C37D303F8012B9D07F9D1032C8D
:102760002AD9CDB245EA05250F2C45EA054534D9CD
:10277000A4F1100222F00F0C03F1200716096744A0
:1027800003F1100242E9045542E902551032BA42FF
:10279000F8D1721C14F00C0F03EB021204F00F06B8
:1027A00013D0331F23F003030433134442F8045BB4
:1027B0009342FBD106F003042CB1CAB21C4403F8C7
:1027C000012B9C42FBD1F0BC704734461346002CD1
:1027D000F3D1F8E714460346C1E71A462646E0E778
:1027E0002DE9F84F4B6E9C0490462DD593681268E6
:1027F00043B38B46064602F1080959E9025A5FEADB
:102800009A0715D0043D002401E0A7420ED055F8E8
:10281000041F5A46304601F011F9431C04F101042B
:10282000F3D10023C8E90133BDE8F88FD8F80830A8
:102830002AF0030AA3EB0A03C8F8083009F10809D3
:10284000002BDAD10020ECE701F080FA0023C8E980
:102850000133BDE8F88F00BF2DE9F04FBDB01C4635
:10286000894692460693099018B1836B002B00F0BD
:102870008682D9F86430B9F90C10DB078AB202D429
:102880008F0540F1038596040AD4D9F8643041F4E9
:10289000005223F40053A9F80C20C9F8643092B216
:1028A000150740F10381D9F81030002B00F0FE80AD
:1028B00002F01A030A2B00F007810023CDE911333F
:1028C000CDE90C330A930B930593DDF824B013ABD9
:1028D000109398469AF80030002B00F0608154461F
:1028E00004E014F8013F002B00F03781252BF8D1CC
:1028F000B4EB0A0540F034812378002B00F04F81BF
:1029000000234FF0000204938DF83B201F464FF048
:10291000FF326378029204F1010A2B250AF1010AC1
:10292000A3F120025A2A00F24F81DFE812F064027C
:102930004D014D015F024D014D014D016A004D01F8
:102940004D012B023B024D01360245024D01400272
:102950005B005B005B005B005B005B005B005B009F
:102960005B004D014D014D014D014D014D014D01EA
:102970004D014D01190285004D014D014D014D01E3
:102980004D014D014D014D014D014D01E4004D0141
:102990004D014D01FD014D0189024D014D01F9042B
:1029A0004D014D014D014D014D014D014D014D01B7
:1029B0004D014D01190287004D014D014D017C0271
:1029C000870080004D016F024D01AA02E6009902C6
:1029D00080004D01FD017D00F7044D014D011605FC
:1029E0004D017D00A3F1300200211AF8013B01EBFB
:1029F000810102EB4101A3F13002092AF5D90491CA
:102A00008EE7584601F03CFB43680C931846FDF7EF
:102A100077FD034658461C460D9301F031FB826852
:102A20000B92002C40F063849AF8003076E79AF815
:102A3000003047F0200771E747F01007BB0640F170
:102A40005881069C073424F007031946F1E8022355
:102A5000069114461D46002A73F10003C0F2F48368
:102A6000029B013300F0E48427F08003019354EAD1
:102A7000050300F0D083002D08BF0A2C80F0978456
:102A800030340123019F8DF8EF4003930DF1EF06E1
:102A9000DDE902219DF83B308A42B8BF0A46019227
:102AA000002B00F09F80013201929BE0099849467B
:102AB00000F0B0FD002840F04485B9F80C2002F089
:102AC0001A030A2B7FF4F9AEB9F90E30002BFFF68A
:102AD000F4AED9F86430D90702D4920540F10E85DE
:102AE000099823465246494600F052FD0590059844
:102AF0003DB0BDE8F08F47F01007BD06069C40F1E1
:102B00000781073424F00703F3E80245069327F40E
:102B10008063019300234FF000028DF83B20029A5E
:102B20001146013100F0C181019921F0800754EA7A
:102B3000050140F0B981002A40F07D84002B40F06F
:102B40006F83019B13F00103039300F09D833023F7
:102B50008DF8EF300DF1EF069AE7B4EB0A051ED0C1
:102B6000DDE9113201332A44072BCDE91132C8F8CF
:102B700000A0C8F8045006DC08F10808059A23787C
:102B80002A440592B9E6002A00F0418310AA49467A
:102B90005846FFF725FE40B90DF14C08EEE7129BB1
:102BA000002B40F0C48400231193D9F8643013F053
:102BB000010FB9F80C3000F092805B0600F1CD8473
:102BC00005983DB0BDE8F08F002BE8D001228DF8CC
:102BD0008C304FF0000301928DF83B30039223AE0E
:102BE0000023029317F00203089302D0019B0233E3
:102BF000019317F08403079305D1049B019A9C1A53
:102C0000002C00F35282DDE9112C511C9DF83B0091
:102C100078B10CF1010C0DF13B0001220729CDE93F
:102C2000111CC8E9000200F321820A4608F10808D5
:102C30000131089BD3B10CF1020C0FAA0223072922
:102C4000CDE9111CC8E9002340F32A82BCF1000F32
:102C500000F0D88210AA49465846FFF7C1FD002867
:102C6000A3D1DDE9112C0DF14C08511C079B802BE1
:102C700000F05E81DDE902301C1A002C00F3AB810C
:102C8000039A1191134663440729C8E9006212931D
:102C900040F34B81002B00F0468210AA494658466B
:102CA000FFF79EFD002880D1129B0DF14C0879079B
:102CB00005D5049A0199541A002C00F33E82DDE9EF
:102CC000041201988142ACBF521812180592002BD1
:102CD00040F0BE81002311930DF14C08FAE59A05EE
:102CE0003FF56BAFD9F8580001F0D4F9B9F80C30C2
:102CF00063E7069BFE0653F8044B00F1DE827D0677
:102D000040F1D88224B2E517069322462B46A2E66C
:102D100054F8043B0694F80600F1C982790640F1A4
:102D2000C3829CB20025F2E6069C54F8046B4FF077
:102D300000038DF83B30002E00F08B83029A13467F
:102D4000013300F00D8300213046FDF749FC0028D7
:102D500000F0DA83831B039300230694029397E623
:102D6000069C012254F8043B01924FF000018DF8BB
:102D70003B108DF88C300694039223AE30E700F0C0
:102D8000BDFD76E5069B53F8042B0492002A80F2E1
:102D90007682049A0693524204929AF8003047F0E1
:102DA0000407BBE59AF800308DF83B50B6E59AF879
:102DB000003047F08007B1E5514611F8013B2A2B5E
:102DC00000F0D283A3F13002092A8A4698BF00217D
:102DD00000F2A5831AF8013B01EB810102EB4101EE
:102DE000A3F13002092AF5D9029199E59AF8003049
:102DF00047F0010792E59DF83B30002B7FF414AEBD
:102E000020238DF83B309AF8003087E59AF800309F
:102E10006C2B03BF9AF8013047F020070AF1010A32
:102E200047F010077AE59AF80030682B03BF9AF84C
:102E3000013047F400770AF1010A47F040076DE5D9
:102E400047F010030193019B9B0640F1EE81069C25
:102E5000073424F00703F3E80245069301235AE6FA
:102E6000069C54F8043B069447F63002ADF83C202B
:102E70001C4647F00202B44B0A930192002502233C
:102E800049E6B90600F11F82FA0600F1DA827B06F4
:102E900000F11E83BE0540F1D482069C059A54F8C9
:102EA000043B06941A7015E50197012B3FF4E3AD3E
:102EB000022B3CAE13D10A98230904F00F0143EA18
:102EC00005732A091C461546435C06F8013D54EA81
:102ED0000503F1D1019F3CAB9B1B0393D8E5E208AE
:102EE00042EA4572E90804F007030D461446303300
:102EF00054EA0501324606F8013DF0D1019FFC0776
:102F0000E9D5302BE6D03023023A06F8013C3CAB41
:102F10009B1A019F03931646BAE5039B1493CDE9D0
:102F20001236012211920DF14C0808F10808BEE694
:102F3000049B01981C1A002C7FF79CAE102C834D2B
:102F400040F31083634606E0901C08F108080A4627
:102F5000103C102C1DDD511C10331020072912933A
:102F6000C8F80050C8F804001191EDDD10AA4946D8
:102F70005846002B75D0FFF733FC00287FF415AEC0
:102F8000DDE91123103C102C02F101000DF14C0879
:102F9000E1DC9C46A4440728C8E90054CDF848C0A9
:102FA000119040F37C81BCF1000F00F0808210AAE8
:102FB00049465846FFF714FC00287FF4F6ADDDE9DA
:102FC0000230DDE9112C1C1A002C02F101010DF177
:102FD0004C087FF755AE102C5C4DC8BF634607DC2C
:102FE00024E0911C08F108080246103C102C1CDD5E
:102FF000501C1033102107281293C8F80050C8F84D
:1030000004101190EDDD10AA49465846DBB1FFF7D8
:10301000E7FB00287FF4C9ADDDE91123103C102C3B
:1030200002F101010DF14C08E2DC9C46A4440729A1
:10303000C8E90054CDF848C0119100F3CD8008F1E3
:10304000080801311CE601211A460DF14C08CCE7B5
:1030500010AA49465846FFF7C3FB00283FF43AAE92
:10306000A3E501201A460DF14C0871E7BCF1000FF1
:1030700000F0C48010AA49465846FFF7B1FB00286B
:103080007FF493ADDDE9112C0DF14C08511CD0E516
:1030900002230FAACDE913239C4601210DF14C0810
:1030A0000A4608F10808511CE0E5102C40F3328272
:1030B000DDE91103264D06E0821C08F108080846E8
:1030C000103C102C1CDD411C1033102207291293D8
:1030D000C8F80050C8F804201191EDDD10AA494647
:1030E0005846DBB1FFF77CFB00287FF45EADDDE9DD
:1030F0001103103C102C00F101020DF14C08E2DC30
:1031000004EB030C072AC8E90054CDF848C011921B
:1031100000F3A38008F10808511C77E51846012246
:103120000DF14C08CCE7780711934CD5049A01991E
:10313000541A002C47DD0DF14C08102C40F3F3819C
:103140001199034D10260CE0105200083C52000863
:103150002C520008881C08F108081146103C102C5D
:1031600019DD4A1C1033072AC8E900561293119240
:10317000F0DD10AA4946584603B3FFF731FB00289B
:103180007FF413ADDDE91113103C102C01F10100A7
:103190000DF14C08E5DC23440728C8E900541293DC
:1031A00011907FF78CAD73B110AA49465846FFF7CE
:1031B00017FB00287FF4F9AC129B80E5012019462B
:1031C0000DF14C08CAE7DDE9042301998A42ACBF3E
:1031D0009B185B1805937DE5BCF1000F3FF49DAE95
:1031E00010AA49465846FFF7FBFA00287FF4DDACE9
:1031F000DDE9111C0DF14C08013141E5089B002B64
:1032000040F08480012162460DF14C082EE51192B8
:103210000DF14C08B2E4029B002B7FF431AC019F0E
:103220000023CDE902333CAE32E4019BDF0656D4E5
:10323000019B5E0640F11781069C54F8042B06940E
:10324000012394B2002566E42D2364428DF83B30BF
:1032500065EB45050197012361E4BCF1000F00F027
:10326000888010AA49465846FFF7BAFA00287FF42A
:103270009CACDDE9112C0DF14C08511CC6E4069301
:103280009AF80030FFF74ABB3CAE01E4D9F8580089
:1032900000F0FEFEB9F90C108AB2FFF7F4BA08F19B
:1032A0000808411C0246E5E4BA0500F123811C46EA
:1032B00000252CE4B80500F11681E5170693224697
:1032C0002B46FFF7C8BB059B069CDD1754F8041B73
:1032D00006941A462B46C1E90023FFF7FBBA069C69
:1032E00054F8042B069401231446002513E40B9B89
:1032F000002B3FF499AB0B9B1B78002B3FF494AB56
:103300009AF8003047F48067FFF708BB02230FA943
:10331000CDE913139C460DF14C08C2E6019792E5E6
:10332000974A0A92BD06069C31D5073424F007025D
:10333000F2E802450692FE0709D554EA050206D0D6
:1033400030228DF83D3047F002078DF83C2027F4FD
:10335000806301930223FFF7DEBB8A4A0A92E1E70A
:103360003046FDF7CDF80023069403900293FFF753
:103370008FBB9DF83B20002A40F09F80089B002BCC
:103380007FF486AE624601210DF14C0872E454F8D8
:10339000042B0694FC0607D4780602D594B20025C7
:1033A000C9E7B90500F19C8014460025C3E7019BDD
:1033B000CDF80C8003F48063CDF81CA00027CA462A
:1033C0003CAEDDF82C90984607E0FCF719FF002D85
:1033D00008BF0A2C1FD304460D460A2200232046AC
:1033E0002946FCF70DFF94460CF1300C06F801CC91
:1033F000204629460A2200230137013EB8F1000F7A
:10340000E3D099F800C0BC45DFD1FF2FDDD09D424D
:1034100008BF944237D23CAB9B1BDDF80C80CDF843
:103420002C90019F0393D146DDF81CA0FFF730BB21
:103430000197FFF720BB012B01977FF439ADFFF710
:103440001FBB069C059A54F8043B1A600694FFF7CC
:1034500041BA029B4C4E0694062B28BF06230393C9
:103460000193FFF7BDBB069C019B54F8042B069407
:1034700013F4007F18BFD4B24FF0010308BF144605
:103480000025FFF748BB0D9B0C99F61A1A463046EB
:1034900001F058FC99F801300BB109F101090A2239
:1034A0000023204629460027FCF7AAFE93E70121C6
:1034B00062460DF14C08FFF7DDBB01220DF13B0028
:1034C00011461492944613900DF14C08FFF7ADBBD2
:1034D000069C059A54F8043B06941A80FFF7FAB943
:1034E000D4B2002527E764B2E517069322462B469F
:1034F000FFF7B1BADCB20025FFF709BBD9F85800D5
:1035000000F0C8FDFFF7ECBA029B0393069402900B
:10351000FFF7BEBADDE911231C4D0132F0E50022B0
:103520000292FFF7FDB91198184D013033E6099862
:1035300010AA4946FFF754F900283FF434ABFFF7CF
:1035400034BBD9F86430DC0707D4B9F80C309805DF
:1035500003D4D9F8580000F09DFD4FF0FF330593D8
:10356000FFF72EBB084615E5069A9AF8013052F887
:10357000040B06928A4640EAE0710291FFF7CEB949
:10358000FC51000810520008245200082C52000878
:10359000F0B50C46ADF26C4D8989B4F80EC0ADF8AB
:1035A0000EC01F46636E19931546636AE26907925F
:1035B00021F002011AAA0646ADF80C100993002169
:1035C0004FF4806316A8069100920492029305932B
:1035D00000F05AFD2A463B4669463046FFF73CF963
:1035E000051E07DB3046694600F02CF9002818BF9D
:1035F0004FF0FF35BDF80C305B0603D5A38943F0CF
:103600004003A381169800F041FD28460DF26C4D51
:10361000F0BD00BF38B5324B1B6805460C4613B1F0
:103620009A6B002A3CD0B4F90C3018079AB20CD52A
:103630002169A9B112F0010022D060690025404241
:10364000A061A56011B3002038BDD10640D5520756
:103650002AD4216943F00803A3819AB20029E9D151
:1036600002F42070B0F5007FE4D02846214600F037
:1036700041FDB4F90C3021699AB212F00100DCD19D
:10368000950758BF6069A0600029DCD1120658BFB9
:103690000846D9D543F04003A3814FF0FF3038BD31
:1036A000184600F02BF9BEE7216B51B104F140023E
:1036B000914204D0284600F045FAB4F90C300022BB
:1036C0002263216921600022626023F02403C1E7A4
:1036D00043F0400309222A604FF0FF30A38138BD38
:1036E0000C000020024B13B1024800F00DB87047E7
:1036F000000000006939000808B5062001F0BCFA96
:103700000120FEF71EFE00BF002301461A461846A0
:1037100001F0E6BBB1F90C202DE9F0410D4611078F
:10372000804647D46B6842F40062002BAA815DDDBD
:10373000AC6A002C57D00023D8F80060C8F80030DD
:1037400093B212F4805255D10123E9694046A04753
:10375000431C66D0AB89AC6A5F0705D56A682B6BE2
:10376000801A0BB1EB6BC01AE96902460023404690
:10377000A047411C40D1D8F80030002B3CD01D2B75
:1037800001D0162B55D1AB892A692A6023F4006336
:103790000022AB816A60296BC8F8006019B305F19B
:1037A0004003994202D0404600F0CCF90020286343
:1037B000BDE8F0812F69B7B193B22E682F609A07E8
:1037C0000CBF6B690023F61BAB600AE06C6AE96909
:1037D00033463A464046A047041EA6EB040627445B
:1037E00017DD002EF2DC0020BDE8F081EB6B002B32
:1037F0009EDCF8E7286DAFE7B5F90C302A692A603E
:1038000023F400630022AB81DB046A60C3D5286522
:10381000C1E7AB8943F04003AB814FF0FF30BDE817
:10382000F081D8F80030002B94D01D2B06D0162B39
:1038300004D0AB8943F04003AB81D5E7C8F8006002
:10384000D1E700BF38B50C46054608B1836BA3B17C
:10385000B4F90C00B8B1636EDB0701D4810515D54E
:1038600028462146FFF756FF636EDA07054602D465
:10387000A3899B050ED5284638BD00F03FF8B4F962
:103880000C000028E7D10546284638BDA06D00F0A1
:10389000FFFBE5E7A06D00F0FDFB284638BD00BF4B
:1038A00010B500230446C0E90033C0E90433818128
:1038B000C281836043668361194608225C30FEF74B
:1038C0003FFF07480749084A084BE362C4E907403D
:1038D000C4E9091204F15800BDE8104000F0D4BB5F
:1038E000B94C0008DD4C00081D4D00083D4D000896
:1038F000014900F09BBB00BF914F000810B5044682
:10390000114800F0C5FBA26BC2B904F53B730F4828
:10391000C4F8E0220321C4E9B913E063042160681C
:10392000FFF7BEFFA06801220921FFF7B9FFE06899
:1039300002221221FFF7B4FF0123A363BDE8104068
:10394000014800F0A7BB00BF88120020F138000832
:10395000014800F09DBB00BF9C120020014800F010
:1039600099BB00BF9C12002038B5084B084D5B1B6B
:103970009C1007D0043B1D44013C55F8043998477E
:10398000002CF9D1BDE8384001F0C2BB74530008E7
:10399000705300082DE9F04782B0804689461446EE
:1039A00000F068FB012803D109F1FF33FE2B36D963
:1039B0004A4604F15C0301A9404601F04FFA421C5B
:1039C000064632D030B39DF804C000250DF1040A3C
:1039D00009E023685A1C226083F800C00135B54213
:1039E00018D215F80AC0A368013B002BA360F0DAD7
:1039F000A769BB4261462246404602DBBCF10A0F82
:103A0000E7D101F0D3F9431CE8D10646304602B0B5
:103A1000BDE8F0874E46304602B0BDE8F0875FFA59
:103A200089FC06468DF804C0CFE7A389304643F0F1
:103A30004003A38102B0BDE8F08700BF30B5536EEC
:103A400013F0010FB2F90C30144683B005469AB258
:103A500001D198051CD5900406D4626E43F400533E
:103A600042F40052A381626628462246FFF792FF85
:103A7000636EDA07054602D4A3899B0502D5284662
:103A800003B030BDA06D00F005FB284603B030BD8B
:103A9000A06D019100F0FCFAB4F90C3001999AB2D2
:103AA000D9E700BFF8B5244F0C46064600F0AAFE41
:103AB000BB685D68C4F57E610F3125F003054B19C5
:103AC00023F47F6323F00F03A3F58054B4F5805FE4
:103AD00007DB0021304601F091F8BB682B44984287
:103AE00004D0304600F094FE0020F8BD614230461C
:103AF00001F084F801300DD0104AB96813682D1B0D
:103B000045F0010530461B1B4D60136000F080FE40
:103B10000120F8BD0021304601F070F8BA68831A20
:103B20000F2BDEDD064C0549246843F00103001B22
:103B300053600860D5E700BFA805002048120020A8
:103B4000B009002000295ED0F8B50C46064600F00A
:103B500059FE54F8043CDFF8F0C123F00101A4F150
:103B600008004218DCF808705568974225F00305F4
:103B700000F08880DF07556033D454F8087CC01B00
:103B80000CF108048368A342394469D05719D0F86E
:103B90000CE07F68C3F80CE0CEF80830FB0740F17A
:103BA000968041F0010343601160B1F5007F33D28C
:103BB000CB08DCF8044001334A090121914021433C
:103BC0000CEBC3025CF83340CCF80410083AC0E9AF
:103BD00002424CF83300E0603046BDE8F84000F0A7
:103BE00017BE53195B68DF070ED429440CF1080493
:103BF0009368A34273D0D468DC6041F00102A360F3
:103C000042604150D1E7704741F00103B1F5007FB8
:103C100044F8043C1160CBD3B1F5206F4FEA512337
:103C20004AD28B0903F13905ED0003F138025CF843
:103C300005300CEB0504083C9C4259D05A6822F030
:103C400003028A4202D99B689C42F7D1DC68C0E932
:103C50000234A060D8603046BDE8F84000F0D8BD1E
:103C600053195B68DB0766D4D2E90223294441F08B
:103C70000104D3609A60446041503046BDE8F8408A
:103C800000F0C6BDDB07294407D454F8083CC01A2D
:103C90001944D0E90223D3609A60294B1B6841F094
:103CA00001028B424260CCF8080095D8254B304683
:103CB0001968FFF7F7FE8FE7142B0AD9542B21D888
:103CC0000B0B03F16F05ED0003F16E02AFE7294422
:103CD0008EE703F15C05ED0003F15B02A7E741F01D
:103CE0000103CCE90400C0E902444360415073E79A
:103CF000DCF804109210012505FA02F20A43CCF810
:103D00000420A4E7B3F5AA7F06D8CB0B03F178050E
:103D1000ED0003F177028AE740F25452934206D84D
:103D20008B0C03F17D05ED0003F17C027FE74FF47E
:103D30007E757E227BE741F00103436011604BE713
:103D4000B409002078120020A80500209368002BF9
:103D500000F08A802DE9F04F9046B1F90C200C4616
:103D6000110783B0814693B225D522691AB313F0A7
:103D70000207D8F800502DD00026DFF8ACB2374645
:103D8000AA465F453B46324628BF5B464846002F61
:103D90004FD0E169656AA84700285BDDD8F8083094
:103DA0001B1A06443F1AC8F80830002BE9D100203E
:103DB00003B0BDE8F08F21464846FFF72BFC0028F2
:103DC00040F02F81B4F90C20D8F8005093B213F0D2
:103DD0000207D1D113F0010A48D156462EB39A05F5
:103DE000A76840F18C80B742BB4600F2B78013F45D
:103DF000906F40F0CB8020685A46514600F096FC08
:103E0000A2682368D21B5B443746A2602360002669
:103E1000D8F80830DB1BBA44C8F80830002BC6D0ED
:103E2000B4F90C309BB2002ED9D1D5E900A60835E3
:103E3000D4E7DAE900670AF1080AA2E729465A46F8
:103E400000F074FC23685B44236021464846FFF77A
:103E5000F9FC58B3B4F90C3043F040034FF0FF3095
:103E6000A38103B0BDE8F08F002070473E46AA460C
:103E700038463D4600976EB3002833D0009A20683C
:103E8000D4E90413B24228BF3246884204D9A1685B
:103E900003EB010B5A45D1DC93426ADCE169676AA6
:103EA0002A464846B847B0F1000BD3DD009BB3EB80
:103EB0000B03009356D00120D8F80830A3EB0B0376
:103EC0005D44A6EB0B06C8F80830002B3FF46FAF3B
:103ED000002ED1D10AF1080353E902569A4608335D
:103EE000002EF9D032460A212846FCF779FB00283B
:103EF00000F08E800130431B00931A46BFE7206814
:103F00002369984214D86169B14211D86FF0004317
:103F1000B34228BF3346676A93FBF1F3524601FB75
:103F200003F34846E169B847071E93DDF61B6FE7C8
:103F3000B74228BF37463A46514600F0F7FBA36820
:103F40002268DB1B3A44A3602260002BEED121469D
:103F50004846FFF777FC0028E8D07BE72068374623
:103F6000B34649E721464846FFF76CFC0028A3D03A
:103F700070E72946019200F0D9FB019AA1682368F5
:103F8000891A1344A160236093468FE7D4E904178C
:103F9000226807EB4707A2EB010B07EBD7770BF182
:103FA00001007F103044B8423A4684BF07463A4683
:103FB0005B051BD51146484600F0E8F858B35A4651
:103FC00021690090FCF75CFBA289009B22F49062BF
:103FD00042F08002A281A7EB0B0203EB0B006761AA
:103FE00023612060A2603746B34605E7484600F0EB
:103FF00015FC03460028EED121694846FFF7A2FDD3
:10400000B4F90C300C2223F08003C9F8002023E718
:10401000721C009233E70C23C9F80030B4F90C305D
:104020001AE74FF0FF30C3E600FCFF7F2DE9F843AD
:104030000746884600F538764FF00009D6E9015466
:10404000013D11D4A389012B05F1FF3508D9B4F93D
:104050000E30013304D021463846C04749EA0009F2
:104060006B1C04F16804EDD13668002EE6D1484699
:10407000BDE8F883014B93F8280170473C04002009
:10408000004870472C050020704700BF704700BFF4
:10409000704700BF704700BF70B50C46B1F90E10F5
:1040A000002996B015461E4614DB6A4600F0D6FF7E
:1040B00000280FDB019A02F47042A2F50052B2FA16
:1040C00082F252094FF480634FF4006032602B603B
:1040D00016B070BDA189002311F08000336004D0B8
:1040E000402218462A6016B070BD4FF480632B60E2
:1040F00016B070BD70B58B899D0782B00C4607D590
:1041000001F143030122C1E904320B6002B070BD2A
:1041100001AB6A460646FFF7BFFF009905463046E9
:1041200000F034F8B4F90C30024670B11648F06370
:1041300001990098226043F08003C4E90420A38120
:1041400089B92B43A38102B070BD9A05DED423F058
:10415000030304F1430243F002030121C4E90421F3
:10416000A3812260D2E7B4F90E10304600F08CFF34
:1041700010B9B4F90C30E4E7A28922F0030242F04E
:10418000010213B2DDE700BFF13800082DE9F04F5E
:1041900001F10B05162D83B0064624D8102900F234
:1041A000B78000F02FFB102502211823DFF8F084E0
:1041B0004344A3F108025C68944200F0B580636850
:1041C00023F003032344D4E902515A68E96042F022
:1041D000010230468D605A6000F01AFB0834204618
:1041E00003B0BDE8F08F35F0070500F19180A942DA
:1041F00000F28E8000F006FBB5F5FC7FC0F09081E8
:104200006B0A00F08C80042B00F26681AB0903F18D
:10421000390103F13807CB00DFF884844344A3F16C
:1042200008005C68A04206D10CE0002A80F22281DE
:10423000E468A04206D0636823F003035A1B0F2AE8
:10424000F3DD3946D8F81040DFF858C4644577D01C
:10425000626822F00302531B0F2B00F36F81002BC7
:10426000C8E904CC80F26081B2F5007F80F0108153
:10427000D3080133500901228240D8F8040058F8CD
:104280003370A76008EBC30E0243AEF10800E06094
:10429000C8F8042048F83340FC608B100120984097
:1042A000904254D8104206D121F003014000104240
:1042B00001F10401FAD008EBC1094C468E46E768CB
:1042C000BC4207D114E1002B80F21B81FF68BC4285
:1042D00000F00E817A6822F00302531B0F2BF2DDEF
:1042E000D7E902E4791945F001057D6043F0010545
:1042F000CEF80C403046C4F808E0C8E90411C1E922
:1043000002CC4D60BB5000F083FA07F1080402E0D4
:104310000C2333600024204603B0BDE8F08F4FF437
:10432000007340213F2777E7DC68A34208BF0231D2
:104330007FF445AFD8F81040DFF868C3644587D1F3
:10434000D8F804208B10012098409042AAD9D8F8C0
:104350000840676827F00307BD4202D87B1B0F2B7C
:1043600077DCDFF84493CA4BD9F800201B68013290
:104370002B4404EB070A00F02E8103F580530F3322
:1043800023F47F6B2BF00F0B5946304600F036FCC0
:10439000411C024600F0EB80824500F2E680BD4BF6
:1043A000196859441960084600F04B81D9F800108B
:1043B000019301311BBFA2EB0A0A5044C9F8002047
:1043C000186012F0070A00F01481CAF108010A44CB
:1043D000CAF5805193440831A1EB0B01C1F30B09DD
:1043E00049463046009200F009FC421CDDE90023FA
:1043F00000F05C81801A00EB090B1968C8F80820EE
:104400004BF00100494444455060196000F026819A
:104410000F2F40F2258160680C3F27F0070700F05E
:10442000010004EB070C38434FF0050E0F2F6060BE
:10443000CCE901EE00F2428150681446964B1A68AE
:104440008A4238BF1960954B1A688A4238BF196092
:1044500090E0621943F0010345F0010565603046C4
:10446000C8F80820536000F0D3F90834204603B0A0
:10447000BDE8F08F2344E1685A68A56842F0010264
:10448000E96030468D605A6000F0C2F9083442E7B6
:10449000B2F5206F4FEA522361D3142B00F2BA8099
:1044A00003F15C00C0005B3308EB000758F8000024
:1044B000083F874200F09280436823F00303934251
:1044C00002D980688742F7D1C768D8F80420C4E9C8
:1044D0000207BC60C460E0E6142B59D9542B00F2EB
:1044E000A1802B0B03F16F0103F16E07CB0093E664
:1044F0000EF1010E1EF0030F04F108047FF4DFAE8D
:1045000051E03A443C465368F96854F8085F43F078
:10451000010353603046E9608D6000F079F9FAE6F6
:10452000E90805F1080341E622443046536843F0A8
:1045300001035360083400F06BF9ECE6611943F0B5
:10454000010745F0010565603046C8E90411C1E97D
:1045500002CC4F60A35000F05BF90834DBE693090E
:1045600003F13900C00038339EE7444564D0D8F8E1
:104570000840606820F0030B5D45ABEB050302D8F3
:104580000F2B3FF766AF304600F042F90024C2E639
:1045900003F15C0103F15B07CB003DE659F80839F4
:1045A0004B4540F0AA8011F0030F01F1FF31F5D126
:1045B000D8F8043023EA0003C8F8043040009842D9
:1045C0003FF6C5AE18B9C2E640000EF1040E18421F
:1045D000FAD071466FE603F1100BD5E69A104FF052
:1045E000010ED8F804300EFA02F21A43C8F804207B
:1045F0006DE702EB0B014942C1F30B094946304616
:10460000009200F0FBFA431CDDE900237FF4F2AED8
:10461000D146F2E6542B26D8130B03F16F00C000ED
:104620006E3341E7B3F5AA7F26D8EB0B03F178018F
:1046300003F17707CB00EFE5164B18685844186074
:10464000B4E6CAF30B0CBCF1000F7FF4AFAED8F8A0
:104650000840BB444BF001006060EFE61446EDE615
:10466000012353608FE7B3F5AA7F33D8D30B03F14F
:104670007800C000773317E740F25452934233D8A2
:10468000AB0C03F17D0103F17C07CB00C4E500BF57
:1046900078120020481200207012002074120020AE
:1046A000A8050020B0050020B0090020AAF1080AE2
:1046B000D344ABEB020B4FF000099EE604F1080176
:1046C00030460093FFF73EFAD8F80840009B606838
:1046D0001968B3E640F2545083420AD8930C03F1B0
:1046E0007D00C0007C33DFE64FF47E737F217E27A0
:1046F00092E54FF47E707E23D6E6D8F804305DE76D
:1047000082B049B15AB16BB113780B601278101EA8
:1047100018BF012002B0704701A9002AF3D110464A
:1047200002B070476FF00100F4E700BF8842F0B4B8
:104730000DD98B1883420AD9841832B1224613F856
:10474000014D02F8014D9942F9D1F0BC70470F2A92
:104750000ED80346541E002AF7D001340C44013B06
:1047600011F8012B03F8012FA142F9D1F0BC7047D9
:1047700040EA01039B073FD1A2F1100323F00F048D
:1047800001F1200727441B0901F1100400F1100575
:1047900054F8106C45F8106C54F80C6C45F80C6C1F
:1047A00054F8086C45F8086C54F8046C45F8046C2F
:1047B0001034BC4205F11005EAD1013312F00C0FA0
:1047C00001EB031102F00F0400EB031317D0043CBC
:1047D00024F0030CA5089C441C1F0E4656F8047BCD
:1047E00044F8047F6445F9D16C1C03EB840301EBAE
:1047F000840102F00302ADE7541E0346ADE72246F2
:10480000A8E700BF0148FFF743BC00BF8C1200209F
:104810000148FFF73FBC00BF8C1200202DE9F84F84
:104820001746002900F0BC8007F10B050C468046B6
:10483000FFF7E8FF162D5FD810252A46AF4260D853
:1048400054F8041C21F003069642A4F1080980F2F2
:104850008680C94BD3F808C009EB0600844500F0F8
:10486000BA80D0F804C02CF0010303445B68DB0776
:1048700000F18B802CF0030C06EB0C03934280F2CA
:104880001681CB070FD454F8083CA9EB030ADAF8D9
:10489000043023F003018C44B444944538DA73188F
:1048A000934280F2108139464046FFF76FFC07467D
:1048B000E0B154F8043C23F001034B44A0F108029A
:1048C000934200F0FA80321F242A00F21D81132A3D
:1048D00000F2CE8003462246116819605168596083
:1048E00092689A6021464046FFF72CF94046FFF750
:1048F0008FFF3846BDE8F88F25F00705002D2A46C2
:104900009CDA0C23C8F8003000273846BDE8F88F41
:10491000D0E902235746D3609A6057F8081FDAF8A7
:104920000C30CB60321F242A996000F20881132AD0
:1049300040F203812368CAF808306368CAF80C3073
:104940001B2A00F21B8108340AF1100322681A6046
:1049500062685A60A2689A606646D1463C46731BFC
:104960000F2B22D8D9F8043003F0010333434E440F
:10497000C9F80430736843F001037360404627466A
:10498000FFF746FF3846BDE8F88FC9078BD454F8C7
:10499000083CA9EB030ADAF8041021F003017EE7D2
:1049A000BDE8F84F1146FFF7F1BBD9F8042009EB39
:1049B000050102F001024E4443F001031543C9F81A
:1049C00004504B60736843F0010308317360404644
:1049D000FFF7B8F8D2E7DCF8040020F0030B06EB91
:1049E0000B0C05F1100084454DDAC9073FF55BAFAC
:1049F00054F8081CA9EB010ADAF8041021F00301AD
:104A00008B44B34458453FF74AAF5746DAF80C1089
:104A100057F8080F321F242AC160886000F2BC805A
:104A2000132A40F2B7802168CAF808106168CAF8F2
:104A30000C101B2A00F2C08008340AF11002216811
:104A4000116061685160A16891600AEB0501ABEBF0
:104A5000050242F0010299604A60DAF8043003F07E
:104A600001031D434046CAF80450FFF7D1FE4CE74E
:104A700023680360636843601B2A49D804F1080275
:104A800000F1080328E709EB0501ACEB050242F051
:104A9000010299604A6054F8043C03F001031D438D
:104AA000404644F8045CFFF7B3FE27462DE7D0E903
:104AB00002121E46CA60916051E750F8043C23F090
:104AC00003031E444BE75746DAF80C1057F8080F5B
:104AD000321F242AC160886027D8132A23D921686D
:104AE000CAF808106168CAF80C101B2A2FD80834BD
:104AF0000AF110022168116061685160A16891603B
:104B00001E46D1463C462AE72146FFF70FFEE9E65E
:104B1000A3688360E368C360242A24D004F11002F0
:104B200000F11003D8E63A46E4E7214638461E462F
:104B3000D146FFF7FBFD3C4611E73B4606E7214621
:104B400038466646D146FFF7F1FD3C4607E7A168C7
:104B5000CAF81010E168CAF81410242A22D01034C0
:104B60000AF11802C6E7236903616369436104F12E
:104B7000180200F11803AFE6A8050020A368CAF8E0
:104B80001030E368CAF81430242A21D010340AF116
:104B90001803DBE63A4652E721463846FFF7C6FDE2
:104BA000154B52E72269CAF818206269CAF81C201E
:104BB00018340AF120029DE7A168CAF81010E168D4
:104BC000CAF81410242A0DD010340AF1180236E75E
:104BD0002369CAF818306369CAF81C3018340AF11E
:104BE0002003B3E62269CAF818206269CAF81C20BB
:104BF00018340AF1200222E7A805002038B5074D35
:104C00000022044608462A60FDF70EFC431C00D033
:104C100038BD2B68002BFBD0236038BDA0120020CC
:104C20001F2938B5054621D8D0F8DC220C466AB1D8
:104C300052F8213053B1012B16D0591C10D0002549
:104C4000204642F824509847284638BD284600F0B0
:104C500031F8224601462846BDE8384000F014B835
:104C600016230360012038BD002038BD16230360E1
:104C70004FF0FF3038BD00BF024B01461868FFF708
:104C8000CFBF00BF0C00002038B50C46084D0346CE
:104C90001146204600221C462A60FDF742FB431CB9
:104CA00000D038BD2B68002BFBD0236038BD00BF7F
:104CB000A0120020FDF72EBB10B50C46B1F90E1066
:104CC00000F00AFA002803DB236D0344236510BDBE
:104CD000A38923F48053A38110BD00BF2DE9F041C7
:104CE000B1F90C509846EB050C46174606460BD416
:104CF00025F48055B4F90E10A58143463A46304656
:104D0000BDE8F04100F0D6B8B1F90E100223002240
:104D100000F0CCF9B4F90C50EAE700BF10B50C462E
:104D2000B1F90E1000F0C2F9A389421C0EBF23F4A2
:104D3000805343F480532065A38110BDB1F90E1058
:104D400000F014B970B440EA0104A30701D1032AAA
:104D50000FD804464D1E07E015F8011F03F8011B8C
:104D6000561EC9B11C4632462346002AF4D170BCF7
:104D700070470B460446194653F8046BA6F10135FB
:104D800025EA060515F0803FE4D1043A032A44F8E9
:104D9000046B1946EFD8DDE72244002EE7D003F874
:104DA000011B9342FBD170BC704700BFF8B50D46A4
:104DB0001446064610B1836B002B43D0B4F90C2087
:104DC000A369A360170790B21BD52369CBB1EDB2DD
:104DD00081042F4622D522686169D31A994229DDC0
:104DE0000133A168501C0139A1602060157062690F
:104DF0009A422AD0A389DB0701D50A2D25D038464F
:104E0000F8BD21463046FEF705FC20BBB4F90C2066
:104E1000236990B2EDB281042F46DCD4616E42F476
:104E2000005221F40051A281226861666169D31A9F
:104E30009942D5DC21463046FEF704FD58B9226878
:104E40000123CEE7FEF75AFDB8E721463046FEF7CC
:104E5000F9FC0028D3D04FF0FF37D0E770B50646F5
:104E600084B01D4639B10B4CD4F8E040A047431C38
:104E70000AD004B070BD0C4606492246D1F8E04085
:104E800001A9A047431CF4D100228A232A60336081
:104E900004B070BD3C04002049B1FF2A02D80A705A
:104EA000012070478A2303604FF0FF3070470846A7
:104EB000704700BF70B50C46084D114600261A46D3
:104EC000034620462E601C46FDF762FA431C00D0C4
:104ED00070BD2B68002BFBD0236070BDA01200209A
:104EE0002DE9F047DFF880A00646DAF80000984682
:104EF0000F469146FFF7CCF81A4B1B68D3F8484190
:104F000024B365681F2D26DC5EB9AB1C0135DAF8C9
:104F10000000656044F82370FFF7BCF80020BDE88E
:104F2000F08704EB85030121C3F88890D4F8882129
:104F3000A9400A43022EC4F88821C3F80881E4D1AD
:104F4000D4F88C311943C4F88C11DEE703F5A6744C
:104F5000C3F84841D5E7DAF80000FFF79BF84FF0B7
:104F6000FF30DCE7F85100083804002038B5074D61
:104F70000022044608462A60FDF726FA431C00D0AA
:104F800038BD2B68002BFBD0236038BDA012002059
:104F900070B500294BD00C46054610B1836B002B31
:104FA00048D0636ED80734D5B4F90C30002B3ED00E
:104FB00021462846FEF7AEFBE36A064633B1E169B7
:104FC000284698470028B8BF4FF0FF36A3891A0635
:104FD0003BD4216B41B104F14003994202D02846F1
:104FE000FEF7B0FD00232363616C21B12846FEF774
:104FF000A9FD00236364FEF7ABFC636E0022DB07B0
:10500000A28127D5A06DFFF741F8FEF7A7FC304637
:1050100070BDA3899905CBD4A06DFFF739F8B4F919
:105020000C30002BC4D1666E16F0010608D00026A5
:10503000304670BDFEF762FC636ED807B4D4E8E773
:10504000A06DFFF727F8304670BD21692846FEF7AE
:1050500079FDBEE7A06DFFF71DF8D3E738B50C4624
:10506000084D03461146204600221C462A60FDF7E3
:10507000B6F9431C00D038BD2B68002BFBD0236051
:1050800038BD00BFA012002038B5074D00220446ED
:1050900008462A60FDF7B2F9431C00D038BD2B68E2
:1050A000002BFBD0236038BDA012002070B50C4649
:1050B000084D114600261A46034620462E601C461F
:1050C000FDF7A6F9431C00D070BD2B68002BFBD068
:1050D000236070BDA012002070B50C46084D11462B
:1050E00000261A46034620462E601C46FDF733F97B
:1050F000431C00D070BD2B68002BFBD0236070BD1B
:10510000A0120020F8B500BFF8BC08BC9E4670474E
:0C511000F8B500BFF8BC08BC9E46704714
:10511C0072696E674275666665720000443A5C732C
:10512C00796E74685C5372635C72696E675F6275EA
:10513C00666665722E630000646174614275666612
:10514C0065720000646174614275666665725369CC
:10515C007A65203E203000006300000052696E67C3
:10516C004275666665725F496E69740052696E6756
:10517C004275666665725F507574436861720000B3
:10518C0052696E674275666665725F4765744368FF
:10519C006172000000000000000000000102030426
:1051AC000607080900000000010203042C206675A4
:1051BC006E6374696F6E3A20000000006173736552
:1051CC007274696F6E2022257322206661696C658A
:1051DC00643A2066696C6520222573222C206C6948
:1051EC006E65202564257325730A000010000020CD
:1051FC003031323334353637383941424344454601
:10520C0000000000303132333435363738396162C2
:10521C006364656600000000286E756C6C290000E4
:10522C002020202020202020202020202020202072
:10523C003030303030303030303030303030303062
:10524C0043000000504F5349580000002E0000004E
:10525C00002020202020202020202828282828203A
:10526C002020202020202020202020202020202032
:10527C00208810101010101010101010101010109A
:10528C00100404040404040404040410101010108A
:10529C001010414141414141010101010101010154
:1052AC0001010101010101010101010110101010A6
:1052BC001010424242424242020202020202020226
:1052CC00020202020202020202020202101010107A
:1052DC0020000000000000000000000000000000A2
:1052EC0000000000000000000000000000000000B2
:1052FC0000000000000000000000000000000000A2
:10530C000000000000000000000000000000000091
:10531C000000000000000000000000000000000081
:10532C000000000000000000000000000000000071
:10533C000000000000000000000000000000000061
:10534C000000000000000000000000000000000051
:04535C00000000004D
:08536000D0AEFF7F0100000048
:08536800E5360008E50100082C
:04537000C10100086F
:1053740010000000010000000024F40010000020D0
:1053840000000000FC02002064030020CC03002085
:105394000000000000000000000000000000000009
:1053A40000000000000000000000000000000000F9
:1053B40000000000000000000000000000000000E9
:1053C40000000000000000000000000000000000D9
:1053D40000000000000000000000000000000000C9
:1053E40000000000000000000000000000000000B9
:1053F40000000000000000000000000000000000A9
:105404000000000000000000000000000000000098
:105414000000000000000000000000000000000088
:105424000000000000000000010000000000000077
:105434000E33CDAB34126DE6ECDE05000B0000003C
:105444000000000000000000000000000000000058
:105454000000000000000000000000000000000048
:105464000000000000000000000000000000000038
:105474000000000000000000000000000000000028
:1057A40000000000000000007C1200204300000004
:1057B40000000000000000000000000000000000E5
:1057C4000000000000000000000000004300000092
:1057D40000000000000000000000000000000000C5
:1057E4000000000000000000000000004300000072
:1057F40000000000000000000000000000000000A5
:105804000000000000000000000000004300000051
:105814000000000000000000000000000000000084
:105824000000000000000000000000004300000031
:105834000000000000000000000000000000000064
:105844000000000000000000000000004300000011
:105854000000000000000000000000000000000044
:1058640000000000000000000000000043000000F1
:105874000000000000000000000000000000000024
:10588400000000000000000000000000994E000825
:1058940001470008000000005C520008585200084C
:1058A400C4510008C4510008C4510008C451000880
:1058B400C4510008C4510008C4510008C451000870
:1058C400C4510008FFFFFFFFFFFFFFFFFFFFFFFFC3
:1058D400FFFF00000100415343494900000000005C
:1058E40000000000000000000000000000000000B4
:1058F400000000000000415343494900000000003B
:105904000000000000000000000000000000000093
:105914000000000000000000000000000000000083
:10592400A8050020A8050020B0050020B00500202F
:10593400B8050020B8050020C0050020C0050020DF
:10594400C8050020C8050020D0050020D00500208F
:10595400D8050020D8050020E0050020E00500203F
:10596400E8050020E8050020F0050020F0050020EF
:10597400F8050020F805002000060020000600209D
:10598400080600200806002010060020100600204B
:1059940018060020180600202006002020060020FB
:1059A40028060020280600203006002030060020AB
:1059B400380600203806002040060020400600205B
:1059C400480600204806002050060020500600200B
:1059D40058060020580600206006002060060020BB
:1059E400680600206806002070060020700600206B
:1059F400780600207806002080060020800600201B
:105A040088060020880600209006002090060020CA
:105A14009806002098060020A0060020A00600207A
:105A2400A8060020A8060020B0060020B00600202A
:105A3400B8060020B8060020C0060020C0060020DA
:105A4400C8060020C8060020D0060020D00600208A
:105A5400D8060020D8060020E0060020E00600203A
:105A6400E8060020E8060020F0060020F0060020EA
:105A7400F8060020F8060020000700200007002098
:105A84000807002008070020100700201007002046
:105A940018070020180700202007002020070020F6
:105AA40028070020280700203007002030070020A6
:105AB4003807002038070020400700204007002056
:105AC4004807002048070020500700205007002006
:105AD40058070020580700206007002060070020B6
:105AE4006807002068070020700700207007002066
:105AF4007807002078070020800700208007002016
:105B040088070020880700209007002090070020C5
:105B14009807002098070020A0070020A007002075
:105B2400A8070020A8070020B0070020B007002025
:105B3400B8070020B8070020C0070020C0070020D5
:105B4400C8070020C8070020D0070020D007002085
:105B5400D8070020D8070020E0070020E007002035
:105B6400E8070020E8070020F0070020F0070020E5
:105B7400F8070020F8070020000800200008002093
:105B84000808002008080020100800201008002041
:105B940018080020180800202008002020080020F1
:105BA40028080020280800203008002030080020A1
:105BB4003808002038080020400800204008002051
:105BC4004808002048080020500800205008002001
:105BD40058080020580800206008002060080020B1
:105BE4006808002068080020700800207008002061
:105BF4007808002078080020800800208008002011
:105C040088080020880800209008002090080020C0
:105C14009808002098080020A0080020A008002070
:105C2400A8080020A8080020B0080020B008002020
:105C3400B8080020B8080020C0080020C0080020D0
:105C4400C8080020C8080020D0080020D008002080
:105C5400D8080020D8080020E0080020E008002030
:105C6400E8080020E8080020F0080020F0080020E0
:105C7400F8080020F808002000090020000900208E
:105C8400080900200809002010090020100900203C
:105C940018090020180900202009002020090020EC
:105CA400280900202809002030090020300900209C
:105CB400380900203809002040090020400900204C
:105CC40048090020480900205009002050090020FC
:105CD40058090020580900206009002060090020AC
:105CE400680900206809002070090020700900205C
:105CF400780900207809002080090020800900200C
:105D040088090020880900209009002090090020BB
:105D14009809002098090020A0090020A00900206B
:085D2400FFFFFFFF0000020079
:040000050800263594
:00000001FF
