:020000040800F2
:10000000000002200D1F0008F51D0008011E000859
:10001000071E00080D1E0008131E00080000000047
:10002000000000000000000000000000191E000891
:10003000251E000800000000311E0008B91B000842
:100040005D1F00085D1F00085D1F00085D1F0008A0
:100050005D1F00085D1F00085D1F00085D1F000890
:100060005D1F00085D1F00085D1F00085D1F000880
:100070005D1F00085D1F00085D1F00085D1F000870
:100080005D1F00085D1F00085D1F00085D1F000860
:100090005D1F00085D1F00085D1F00085D1F000850
:1000A0005D1F00085D1F00085D1F00085D1F000840
:1000B0005D1F00085D1F00085D1F00085D1F000830
:1000C0005D1F00085D1F00085D1F00085D1F000820
:1000D0005D1F00085D1F00085D1F00085D1F000810
:1000E0005D1F00085D1F00085D1F00085D1F000800
:1000F0005D1F00085D1F00085D1F00085D1F0008F0
:100100005D1F00085D1F00085D1F00085D1F0008DF
:100110005D1F00085D1F00085D1F00085D1F0008CF
:100120005D1F00085D1F00085D1F00085D1F0008BF
:100130005D1F00085D1F00085D1F00085D1F0008AF
:100140005D1F00085D1F00085D1F00085D1F00089F
:100150005D1F00085D1F00085D1F00085D1F00088F
:100160005D1F00085D1F00085D1F00085D1F00087F
:100170005D1F00085D1F00085D1F000800000000F3
:080180005D1F00085D1F00086F
:1001880010B5054C237833B9044B13B10448AFF3C9
:1001980000800123237010BD3C04002000000000F3
:1001A8002821000808B5034B1BB103490348AFF3E6
:1001B800008008BD0000000040040020282100083D
:1001C80053B94AB9002908BF00281CBF4FF0FF31B6
:1001D8004FF0FF3000F06CB9ADF1080C6DE904CEBA
:1001E80000F006F8DDF804E0DDE9022304B070470A
:1001F8002DE9F047089E0D4604468E46002B40F038
:1002080082808A42174646D9B2FA82F24AB1C2F1CE
:10021800200105FA02F320FA01F1974041EA030EA2
:1002280094404FEA1748230CBEFBF8FCB9B208FB10
:100238001CEE43EA0E430CFB01F098420AD9FB1866
:100248000CF1FF3580F01681984240F21381ACF131
:10025800020C3B441B1AA4B2B3FBF8F008FB1033A2
:1002680044EA034400FB01F1A14209D93C1900F119
:10027800FF3380F00181A14240F2FE8002383C4405
:10028800641A40EA0C4000211EB1D4400023C6E99C
:100298000043BDE8F08702B9FFDEB2FA82F2002A15
:1002A8004FD1CB1B4FEA174E1FFA87F80121B3FB3A
:1002B800FEFC250C0EFB1C3345EA034508FB0CF33A
:1002C800AB4207D97D190CF1FF3002D2AB4200F2E4
:1002D800E7808446ED1AA3B2B5FBFEF00EFB10557D
:1002E80043EA054408FB00F8A04507D93C1900F18A
:1002F800FF3302D2A04500F2D7801846A4EB0804C9
:1003080040EA0C40C0E78B4208D9002E00F0AF80CD
:100318000021C6E900050846BDE8F087B3FA83F175
:1003280000294BD1AB4202D3824200F2B780841A33
:1003380065EB030301209E46002EAAD0C6E9004EB5
:10034800A7E7C2F1200C01FA02F3974020FA0CF05B
:100358004FEA174E21FA0CFC1843BCFBFEF1050CC2
:100368000EFB11CC1FFA87F845EA0C4501FB08F390
:10037800AB4204FA02F409D97D1901F1FF3C80F07F
:100388008B80AB4240F2888002393D44EB1A85B23B
:10039800B3FBFEF00EFB103345EA034500FB08F300
:1003A800AB4207D97D1900F1FF3C71D2AB426FD93E
:1003B80002383D44EB1A40EA014178E7C1F1200CCC
:1003C8008B4022FA0CF71F4320FA0CF405FA01F3CC
:1003D8004FEA174E25FA0CF51C43230CB5FBFEF922
:1003E8001FFA87F80EFB195543EA054509FB08FA79
:1003F800AA4502FA01F200FA01F308D97D1909F1B8
:10040800FF3047D2AA4545D9A9F102093D44A5EBD9
:100418000A05A4B2B5FBFEF00EFB105544EA0544EC
:1004280000FB08F8A04507D93C1900F1FF352DD28B
:10043800A0452BD902383C4440EA0940A4EB080403
:10044800A0FB02894C45C6464D4619D316D05EB16D
:10045800B3EB0E0264EB050404FA0CFCCA404CEA48
:100468000202CC40C6E900240021BDE8F0873146ED
:1004780030460EE7AC46EDE6184601E74345E6D2BE
:10048800B8EB020E69EB07050138E0E72846D3E729
:1004980060468FE78146BAE7614677E708464BE74B
:1004A800ACF1020C3D4415E702383C4426E700BF96
:1004B800704700BF80B500AF0E4B1B680D4A43F470
:1004C800007313600B4B1B680A4A43F48063136084
:1004D800084B1B68074A43F480731360032000F03D
:1004E80011F9002000F008F801F05AFC0023184622
:1004F80080BD00BF003C024080B582B000AF78608C
:10050800124B1A68124B1B7819464FF47A73B3FBD7
:10051800F1F3B2FBF3F3184600F029F90346002B78
:1005280001D001230EE07B680F2B0AD800227968DE
:100538004FF0FF3000F0F1F8064A7B6813600023A3
:1005480000E0012318460837BD4680BD080000209A
:10055800040000200000002080B400AF024B1B689C
:100568001846BD4680BC70475804002080B485B04A
:1005780000AF78607B6803F00703FB600C4BDB6817
:10058800BB60BA684FF6FF031340BB60FB681A02F2
:10059800BB68134343F0BF6343F40033BB60044AB2
:1005A800BB68D36000BF1437BD4680BC704700BF2E
:1005B80000ED00E080B400AF044BDB681B0A03F0D9
:1005C80007031846BD4680BC704700BF00ED00E039
:1005D80080B483B000AF0346FB7197F90730002B56
:1005E8000BDBFB7903F01F02064997F907305B091B
:1005F800012000FA02F241F8232000BF0C37BD4663
:1006080080BC704700E100E080B483B000AF0346CF
:100618003960FB7197F90730002B0ADB3B68DAB2C7
:100628000C4997F907301201D2B20B4483F8002322
:100638000AE03B68DAB20849FB7903F00F03043B90
:100648001201D2B20B441A7600BF0C37BD4680BCEB
:10065800704700BF00E100E000ED00E080B489B021
:1006680000AFF860B9607A60FB6803F00703FB61CC
:10067800FB69C3F10703042B28BF0423BB61FB6993
:100688000433062B02D9FB69033B00E000237B619E
:100698004FF0FF32BB6902FA03F3DA43BB681A4032
:1006A8007B699A404FF0FF317B6901FA03F3D94324
:1006B8007B680B40134318462437BD4680BC7047FF
:1006C80080B582B000AF78607B68013BB3F1807F72
:1006D80001D301230FE00A4A7B68013B53600F21D5
:1006E8004FF0FF30FFF790FF054B00229A60044B54
:1006F80007221A60002318460837BD4680BD00BF90
:1007080010E000E080B582B000AF78607868FFF74D
:100718002DFF00BF0837BD4680BD80B586B000AF4D
:100728000346B9607A60FB7300237B61FFF742FFE1
:1007380078617A68B9687869FFF790FF024697F997
:100748000F3011461846FFF75FFF00BF1837BD4648
:1007580080BD80B582B000AF0346FB7197F90730C2
:100768001846FFF735FF00BF0837BD4680BD80B586
:1007780082B000AF78607868FFF7A2FF034618469A
:100788000837BD4680BD000080B489B000AF7860EE
:10079800396000237B6100233B610023BB61002398
:1007A800FB616BE10122FB6902FA03F37B613B68A1
:1007B8001B687A6913403B613A697B699A4240F049
:1007C8005A813B685B68012B0BD03B685B68022B46
:1007D80007D03B685B68112B03D03B685B68122B22
:1007E80030D17B689B68BB61FB695B00032202FA1E
:1007F80003F3DB43BA691340BB613B68DA68FB6902
:100808005B0002FA03F3BA691343BB617B68BA69F8
:100818009A607B685B68BB610122FB6902FA03F39B
:10082800DB43BA691340BB613B685B681B0903F093
:100838000102FB6902FA03F3BA691343BB617B68DF
:10084800BA695A607B68DB68BB61FB695B0003229D
:1008580002FA03F3DB43BA691340BB613B689A6849
:10086800FB695B0002FA03F3BA691343BB617B6857
:10087800BA69DA603B685B68022B03D03B685B6847
:10088800122B23D1FB69DA087B68083253F822302F
:10089800BB61FB6903F007039B000F2202FA03F315
:1008A800DB43BA691340BB613B681A69FB6903F013
:1008B80007039B0002FA03F3BA691343BB61FB69A0
:1008C800DA087B680832B96943F822107B681B682C
:1008D800BB61FB695B00032202FA03F3DB43BA69DD
:1008E8001340BB613B685B6803F00302FB695B0074
:1008F80002FA03F3BA691343BB617B68BA691A60E9
:100908003B685B6803F08053002B00F0B480002341
:10091800FB605F4B5B6C5E4A43F4804353645C4B03
:100928005B6C03F48043FB60FB685A4AFB699B08D5
:10093800023352F82330BB61FB6903F003039B00C9
:100948000F2202FA03F3DB43BA691340BB617B68E9
:10095800514A93422BD07B68504A934225D07B68FA
:100968004F4A93421FD07B684E4A934219D07B6806
:100978004D4A934213D07B684C4A93420DD07B6812
:100988004B4A934207D07B684A4A934201D10723D6
:100998000EE008230CE006230AE0052308E0042300
:1009A80006E0032304E0022302E0012300E0002321
:1009B800FA6902F0030292009340BA691343BB61DB
:1009C8003449FB699B080233BA6941F823203A4B42
:1009D8001B68BB613B69DB43BA691340BB613B6879
:1009E8005B6803F48033002B03D0BA693B69134377
:1009F800BB61314ABB6913602F4B5B68BB613B69C4
:100A0800DB43BA691340BB613B685B6803F400339E
:100A1800002B03D0BA693B691343BB61264ABB6903
:100A28005360254B9B68BB613B69DB43BA69134044
:100A3800BB613B685B6803F48013002B03D0BA6981
:100A48003B691343BB611C4ABB6993601A4BDB6863
:100A5800BB613B69DB43BA691340BB613B685B68B8
:100A680003F40013002B03D0BA693B691343BB613D
:100A7800114ABB69D360FB690133FB61FB690F2B2A
:100A88007FF690AE00BF00BF2437BD4680BC7047DC
:100A980000380240003801400000024000040240D3
:100AA80000080240000C02400010024000140240FE
:100AB80000180240001C0240003C014080B483B092
:100AC80000AF78600B467B807B685A697B881A4048
:100AD8007B889A4204D17B881A047B689A6102E079
:100AE8007A887B689A6100BF0C37BD4680BC704726
:100AF80080B586B000AF78607B68002B01D10123F8
:100B08005BE27B681B6803F00103002B75D0A34BE5
:100B18009B6803F00C03042B0CD0A04B9B6803F0DC
:100B28000C03082B12D19D4B5B6803F48003B3F5CB
:100B3800800F0BD1994B1B6803F40033002B5BD05B
:100B48007B685B68002B57D1012336E27B685B68C2
:100B5800B3F5803F06D1914B1B68904A43F480332C
:100B680013601DE07B685B68B3F5A02F0CD18B4B3D
:100B78001B688A4A43F480231360884B1B68874AA2
:100B880043F4803313600BE0844B1B68834A23F4DF
:100B980080331360814B1B68804A23F480231360E1
:100BA8007B685B68002B13D0FFF7D6FC386108E040
:100BB800FFF7D2FC02463B69D31A642B01D9032301
:100BC800FBE1764B1B6803F40033002BF0D014E0F4
:100BD800FFF7C2FC386108E0FFF7BEFC02463B693C
:100BE800D31A642B01D90323E7E16C4B1B6803F488
:100BF8000033002BF0D100E000BF7B681B6803F0D6
:100C08000203002B63D0654B9B6803F00C03002B99
:100C18000BD0624B9B6803F00C03082B1CD15F4B75
:100C28005B6803F48003002B16D15C4B1B6803F050
:100C38000203002B05D07B68DB68012B01D0012360
:100C4800BBE1564B1B6823F0F8027B681B69DB008D
:100C5800524913430B603AE07B68DB68002B20D0D5
:100C68004F4B01221A60FFF777FC386108E0FFF765
:100C780073FC02463B69D31A022B01D903239CE17A
:100C8800464B1B6803F00203002BF0D0434B1B6854
:100C980023F0F8027B681B69DB00404913430B60B3
:100CA80015E03F4B00221A60FFF756FC386108E058
:100CB800FFF752FC02463B69D31A022B01D90323E2
:100CC8007BE1364B1B6803F00203002BF0D17B68F5
:100CD8001B6803F00803002B30D07B685B69002B8E
:100CE80016D0304B01221A60FFF736FC386108E055
:100CF800FFF732FC02463B69D31A022B01D90323C2
:100D08005BE1264B5B6F03F00203002BF0D015E08C
:100D1800244B00221A60FFF71FFC386108E0FFF738
:100D28001BFC02463B69D31A022B01D9032344E179
:100D38001A4B5B6F03F00203002BF0D17B681B6832
:100D480003F00403002B00F0A0800023FB75134B75
:100D58001B6C03F08053002B0FD10023BB600F4B9B
:100D68001B6C0E4A43F0805313640C4B1B6C03F04E
:100D78008053BB60BB680123FB750B4B1B6803F4F6
:100D88008073002B21D1084B1B68074A43F48073FA
:100D98001360FFF7E1FB386111E000BF0038024043
:100DA80000004742800E474200700040FFF7D4FB26
:100DB80002463B69D31A022B01D90323FDE0814B7C
:100DC8001B6803F48073002BF0D07B689B68012BB1
:100DD80006D17D4B1B6F7C4A43F0010313671CE06F
:100DE8007B689B68052B0CD1774B1B6F764A43F0C9
:100DF80004031367744B1B6F734A43F001031367B3
:100E08000BE0714B1B6F704A23F0010313676E4BA5
:100E18001B6F6D4A23F0040313677B689B68002BE4
:100E280015D0FFF799FB38610AE0FFF795FB0246FA
:100E38003B69D31A41F28832934201D90323BCE0BB
:100E4800614B1B6F03F00203002BEED014E0FFF799
:100E580083FB38610AE0FFF77FFB02463B69D31A40
:100E680041F28832934201D90323A6E0564B1B6F07
:100E780003F00203002BEED1FB7D012B05D1524B71
:100E88001B6C514A23F0805313647B689B69002BC9
:100E980000F092804C4B9B6803F00C03082B5CD04D
:100EA8007B689B69022B41D1484B00221A60FFF7EF
:100EB80053FB386108E0FFF74FFB02463B69D31A42
:100EC800022B01D9032378E03F4B1B6803F0007322
:100ED800002BF0D17B68DA697B681B6A1A437B6850
:100EE8005B6A9B011A437B689B6A5B08013B1B0496
:100EF8001A437B68DB6A1B06334913434B60334B49
:100F080001221A60FFF728FB386108E0FFF724FB8D
:100F180002463B69D31A022B01D903234DE02A4B21
:100F28001B6803F00073002BF0D045E0274B00222C
:100F38001A60FFF711FB386108E0FFF70DFB024666
:100F48003B69D31A022B01D9032336E01E4B1B68D9
:100F580003F00073002BF0D12EE07B689B69012B16
:100F680001D1012329E0184B9B68FB60FB6803F45F
:100F780080027B68DB699A421CD1FB6803F03F0260
:100F88007B681B6A9A4215D1FA6847F6C07313400A
:100F98007A68526A93420DD1FB6803F440327B6849
:100FA8009B6A9A4206D1FB6803F070627B68DB6A31
:100FB8009A4201D0012300E0002318461837BD46A5
:100FC80080BD00BF0070004000380240600047420A
:100FD80080B584B000AF786039607B68002B01D1A0
:100FE8000123CCE0684B1B6803F00F033A689A4270
:100FF8000CD9654B3A68D2B21A70634B1B6803F080
:101008000F033A689A4201D00123B8E07B681B6855
:1010180003F00203002B20D07B681B6803F0040355
:10102800002B05D0594B9B68584A43F4E053936012
:101038007B681B6803F00803002B05D0534B9B68A3
:10104800524A43F460439360504B9B6823F0F0028C
:101058007B689B684D4913438B607B681B6803F072
:101068000103002B44D07B685B68012B07D1474BF9
:101078001B6803F40033002B19D101237FE07B6840
:101088005B68022B03D07B685B68032B07D13F4B5F
:101098001B6803F00073002B09D101236FE03B4B61
:1010A8001B6803F00203002B01D1012367E0374BD3
:1010B8009B6823F003027B685B68344913438B60A9
:1010C800FFF74AFAF8600AE0FFF746FA0246FB68BB
:1010D800D31A41F28832934201D903234FE02B4BB4
:1010E8009B6803F00C027B685B689B009A42EBD11B
:1010F800254B1B6803F00F033A689A420CD2224B27
:101108003A68D2B21A70204B1B6803F00F033A6892
:101118009A4201D0012332E07B681B6803F0040384
:10112800002B08D0194B9B6823F4E0527B68DB68DE
:10113800164913438B607B681B6803F00803002B78
:1011480009D0124B9B6823F460427B681B69DB0063
:101158000E4913438B6000F021F802460B4B9B6845
:101168001B0903F00F030A49CB5C22FA03F3094A6F
:101178001360094B1B681846FFF7BEF90023184691
:101188001037BD4680BD00BF003C02400038024019
:101198004021000808000020000000202DE9B0438D
:1011A80084B000AF00237B600023FB6000233B601A
:1011B8000023BB60674B9B6803F00C03082B0DD022
:1011C800082B00F2BD80002B02D0042B03D0B7E01F
:1011D800614BBB60B7E0614BBB60B4E05D4B5B68E3
:1011E80003F03F037B605B4B5B6803F48003002BD9
:1011F8004DD0584B5B689B091A464FF0000340F2EC
:10120800FF104FF0000102EA000803EA0109404616
:1012180049464FF000024FF000034B0143EAD06308
:10122800420110461946B0EB080061EB09014FF086
:1012380000024FF000038B0143EA90638201121A07
:1012480063EB01034FF000004FF00001D90041EAC1
:101258005271D00002460B4612EB080243EB090319
:101268004FF000004FF00001590241EAD2515002FC
:1012780002460B46104619467B681A464FF0000393
:10128800FEF79EFF02460B461346FB604AE0314BD1
:101298005B689B091A464FF0000340F2FF104FF0BD
:1012A800000102EA000403EA0105204629464FF03E
:1012B80000024FF000034B0143EAD063420110469D
:1012C8001946001B61EB05014FF000024FF00003C7
:1012D8008B0143EA90638201121A63EB01034FF01A
:1012E80000004FF00001D90041EA5271D0000246D7
:1012F8000B46121945EB03034FF000004FF00001B5
:10130800990241EA9251900202460B46104619464C
:101318007B681A464FF00003FEF752FF02460B4661
:101328001346FB600B4B5B681B0C03F00303013394
:101338005B003B60FA683B68B2FBF3F3BB6002E01A
:10134800054BBB6000BFBB6818461037BD46BDE8FB
:10135800B08300BF003802400024F40000127A0075
:1013680080B400AF024B1B681846BD4680BC70476E
:101378000800002080B500AFFFF7F2FF0246054BDA
:101388009B689B0A03F007030349CB5C22FA03F32B
:10139800184680BD003802405021000880B500AFD3
:1013A800FFF7DEFF0246054B9B685B0B03F0070364
:1013B8000349CB5C22FA03F3184680BD003802408B
:1013C8005021000880B582B000AF78607B68002BA0
:1013D80001D101233FE07B6893F83930DBB2002B61
:1013E80006D17B68002283F83820786800F037F847
:1013F8007B68242283F839207B681B68DA687B685D
:101408001B6822F40052DA60786800F031F87B68D3
:101418001B681A697B681B6822F490421A617B6812
:101428001B685A697B681B6822F02A025A617B682C
:101438001B68DA687B681B6842F40052DA607B68D4
:101448000022DA637B68202283F839207B68202217
:1014580083F83A20002318460837BD4680BD80B47B
:1014680083B000AF786000BF0C37BD4680BC7047C2
:101478002DE9F04FBDB000AFC7F8E400D7F8E4306D
:101488001B681B6923F44050D7F8E430D968D7F8B3
:10149800E4301A6840EA01031361D7F8E4309A6827
:1014A800D7F8E4301B691A43D7F8E4305B691A436C
:1014B800D7F8E430DB691343C7F8EC30D7F8E430E9
:1014C8001B68DB6823F4164121F00C01D7F8E430DF
:1014D8001A68D7F8EC300B43D360D7F8E4301B68B0
:1014E8005B6923F44070D7F8E4309969D7F8E430A1
:1014F8001A6840EA01035361D7F8E430DB69B3F5B1
:10150800004F40F0A681D7F8E4301A686A4B9A4237
:1015180006D0D7F8E4301A68684B9A4240F0D28077
:10152800FFF73CFFC7F8E800D7F8E8301C464FF053
:10153800000522462B469118C7F888105B41C7F86A
:101548008C30D7E92223121945EB03034FF0000032
:101558004FF00001D90041EA5271D00002460B4613
:101568001119C7F8D8106B41C7F8DC30D7F8E43048
:101578005B681A464FF000039118C7F880105B416A
:10158800C7F88430D7E92023D7E93601FEF718FEDB
:1015980002460B464A4BA3FB02235B091E01D7F800
:1015A800E8301C464FF0000522462B469118B967D3
:1015B8005B41FB67D7E91E23121945EB03034FF084
:1015C80000004FF00001D90041EA5271D0000246F4
:1015D8000B461119C7F8D0106B41C7F8D430D7F8AB
:1015E800E4305B681A464FF00003911839675B4195
:1015F8007B67D7E91C23D7E93401FEF7E1FD0246F2
:101608000B462F4BA3FB02135B09642101FB03F379
:10161800D31ADB0032332A4AA2FB03235B095B009F
:1016280003F4F8731E44D7F8E83018464FF0000169
:1016380002460B469418BC665B41FB66D7E91A2341
:10164800121841EB03034FF000044FF00005DD00D2
:1016580045EA5275D40022462B461418C7F8C840EC
:101668004B41C7F8CC30D7F8E4305B681A464FF0E6
:101678000003911839665B417B66D7E91823D7E9DF
:101688003201FEF79DFD02460B460D4BA3FB0213EC
:101698005B09642101FB03F3D31ADB003233084AE8
:1016A800A2FB03235B0903F00702D7F8E4301B68A9
:1016B80032449A6074E200BF0010014000140140F7
:1016C8001F85EB51FFF756FEC7F8E800D7F8E8305A
:1016D8001C464FF0000522462B469118B9655B4120
:1016E800FB65D7E91623121945EB03034FF00000F9
:1016F8004FF00001D90041EA5271D00002460B4672
:101708001119C7F8C0106B41C7F8C430D7F8E430D6
:101718005B681A464FF00003911839655B417B6599
:10172800D7E91423D7E93001FEF74AFD02460B46F4
:10173800B34BA3FB02235B091E01D7F8E8301C4614
:101748004FF0000522462B469118B9645B41FB64B3
:10175800D7E91223121945EB03034FF000004FF0AD
:101768000001D90041EA5271D00002460B46111916
:10177800C7F8B8106B41C7F8BC30D7F8E4305B68DD
:101788001A464FF00003911839645B417B64D7E92E
:101798001023D7E92E01FEF713FD02460B46984B9E
:1017A800A3FB02135B09642101FB03F3D31ADB00DB
:1017B8003233934AA2FB03235B095B0003F4F873FB
:1017C8001E44D7F8E83018464FF0000102460B4691
:1017D8009418BC635B41FB63D7E90E23121841EBF5
:1017E80003034FF000044FF00005DD0045EA527591
:1017F800D40022462B461418C7F8B0404B41C7F80E
:10180800B430D7F8E4305B681A464FF000039118FB
:1018180039635B417B63D7E90C23D7E92C01FEF7D9
:10182800CFFC02460B46764BA3FB02135B096421EF
:1018380001FB03F3D31ADB003233714AA2FB032303
:101848005B0903F00702D7F8E4301B6832449A605A
:10185800A6E1D7F8E4301A686A4B9A4206D0D7F85E
:10186800E4301A68684B9A4240F0D080FFF796FD42
:10187800C7F8E800D7F8E8301C464FF000052246C4
:101888002B469118B9625B41FB62D7E90A2312190A
:1018980045EB03034FF000004FF00001D90041EA87
:1018A8005271D00002460B4612EB040A43EB050BBB
:1018B800D7F8E4305B6818464FF000014FF000029B
:1018C8004FF000038B0043EA90738200504659465C
:1018D800FEF776FC02460B46494BA3FB02235B0945
:1018E8001E01D7F8E83018464FF0000102460B46B3
:1018F80094183C625B417B62D7E90823121841EBDC
:1019080003034FF000044FF00005DD0045EA52756F
:10191800D40022462B461418C7F8A8404B41C7F8F4
:10192800AC30D7F8E4305B6818464FF000014FF050
:1019380000024FF000038B0043EA90738200D7E95E
:101948002A01FEF73DFC02460B462D4BA3FB021372
:101958005B09642101FB03F3D31A1B013233284AC4
:10196800A2FB03235B0903F0F0031E44D7F8E83019
:1019780018464FF0000102460B469418BC615B41C3
:10198800FB61D7E90623121841EB03034FF000046B
:101998004FF00005DD0045EA5275D40022462B467B
:1019A8001418C7F8A0404B41C7F8A430D7F8E43062
:1019B8005B6818464FF000014FF000024FF000033B
:1019C8008B0043EA90738200D7E92801FEF7F8FB01
:1019D80002460B460A4BA3FB02135B09642101FB79
:1019E80003F3D31A1B013233054AA2FB03235B0915
:1019F80003F00F02D7F8E4301B6832449A60CFE056
:101A08001F85EB510010014000140140FFF7B2FCA4
:101A1800C7F8E800D7F8E8301C464FF00005224622
:101A28002B46911839615B417B61D7E90423121970
:101A380045EB03034FF000004FF00001D90041EAE5
:101A48005271D00002460B4612EB040843EB05091D
:101A5800D7F8E4305B6818464FF000014FF00002F9
:101A68004FF000038B0043EA9073820040464946DA
:101A7800FEF7A6FB02460B464C4BA3FB02235B0971
:101A88001E01D7F8E83018464FF0000102460B4611
:101A98009418BC605B41FB60D7E90223121841EB44
:101AA80003034FF000044FF00005DD0045EA5275CE
:101AB800D40022462B461418C7F898404B41C7F863
:101AC8009C30D7F8E4305B6818464FF000014FF0BF
:101AD80000024FF000038B0043EA90738200D7E9BD
:101AE8002601FEF76DFB02460B46304BA3FB0213A3
:101AF8005B09642101FB03F3D31A1B0132332B4A20
:101B0800A2FB03235B0903F0F0031E44D7F8E83077
:101B180018464FF0000102460B4694183C605B41A2
:101B28007B60D7E90023121841EB03034FF0000450
:101B38004FF00005DD0045EA5275D40022462B46D9
:101B48001418C7F890404B41C7F89430D7F8E430E0
:101B58005B6818464FF000014FF000024FF0000399
:101B68008B0043EA90738200D7E92401FEF728FB33
:101B780002460B460D4BA3FB02135B09642101FBD4
:101B880003F3D31A1B013233084AA2FB03235B0970
:101B980003F00F02D7F8E4301B6832449A60FFE77D
:101BA80000BFF437BD46BDE8F08F00BF1F85EB517D
:101BB80080B400AF044B1B680133034A136000BFB5
:101BC800BD4680BC704700BF5C04002080B586B06D
:101BD80000AF00233B600F4B1B6B0E4A43F008031A
:101BE80013630C4B1B6B03F008033B603B684FF41B
:101BF80000537B600123BB600123FB6003233B612F
:101C08003B1D19460448FEF7BFFD00BF1837BD4607
:101C180080BD00BF00380240000C024080B485B08F
:101C280000AF78600A4B00221A60094B1B687A687B
:101C38001344FB6000BF064B1B68FA68D31A002BDD
:101C4800F9DA00BF00BF1437BD4680BC704700BF3B
:101C58005C04002080B500AFFEF72CFC00F018F8FB
:101C680000F080F8FFF7B2FF00F0F0F84FF40051F1
:101C78000548FEF723FF054B61225A604FF47A703E
:101C8800FFF7CCFFF2E700BF000C0240004C004019
:101C980080B594B000AF07F1200330220021184628
:101CA80000F07EF907F10C0300221A605A609A606E
:101CB800DA601A610023BB60284B1B6C274A43F08B
:101CC80080531364254B1B6C03F08053BB60BB68C7
:101CD80000237B60224B1B68214A43F48043136036
:101CE8001F4B1B6803F480437B607B6801233B62C6
:101CF8004FF480337B620223BB634FF48003FB63A2
:101D080008233B644FF4A8737B640223BB64042359
:101D1800FB6407F120031846FEF7EAFE0346002B92
:101D280001D000F037F80F23FB6002233B6100234A
:101D38007B614FF4A053BB614FF48053FB6107F103
:101D48000C0305211846FFF743F90346002B01D081
:101D580000F020F800BF5037BD4680BD0038024073
:101D68000070004080B483B000AF00237B60084B54
:101D78001B6B074A43F080031363054B1B6B03F08F
:101D880080037B607B6800BF0C37BD4680BC704712
:101D98000038024080B400AF00BFBD4680BC704729
:101DA80080B483B000AF00237B600F4B5B6C0E4A9E
:101DB80043F4804353640C4B5B6C03F480437B60B7
:101DC8007B6800233B60084B1B6C074A43F0805339
:101DD8001364054B1B6C03F080533B603B6800BFEA
:101DE8000C37BD4680BC70470038024080B400AF55
:101DF80000BFBD4680BC704780B400AFFEE780B42A
:101E080000AFFEE780B400AFFEE780B400AFFEE7A6
:101E180080B400AF00BFBD4680BC704780B400AF3F
:101E280000BFBD4680BC704780B400AF00BFBD4650
:101E380080BC704780B400AF034B4FF000629A60DB
:101E480000BFBD4680BC704700ED00E080B598B08B
:101E580000AF0023BB60284B1B6B274A43F00103EC
:101E68001363254B1B6B03F00103BB60BB680323A3
:101E7800FB6402233B650823FB6501237B6507F1AF
:101E88004C0319461D48FEF77FFC00237B601A4B64
:101E98001B6C194A43F400231364174B1B6C03F49F
:101EA80000237B607B684FF4E1333B6100237B6157
:101EB8000C233B620023FB6100237B620023BB628F
:101EC8000023BB610E4BFB6007F10C031846FFF7BC
:101ED80079FAFB68DA68FB6842F02002DA600022CF
:101EE80004213420FEF719FC3420FEF732FC0123CC
:101EF80018466037BD4680BD0038024000000240E9
:101F0800004C0040DFF834D0002103E00C4B5B5854
:101F1800435004310B480C4B42189A42F6D30B4AF3
:101F280002E0002342F8043B094B9A42F9D3FFF739
:101F380081FF00F011F8FFF78DFE704700000220C6
:101F480070210008000000203C0400203C04002010
:101F580084040020FEE7000070B50D4E0D4D761B81
:101F6800B61006D0002455F8043B01349847A64221
:101F7800F9D1094E094D761B00F0D2F8B61006D0FB
:101F8800002455F8043B01349847A642F9D170BDA6
:101F980064210008642100086C21000864210008FD
:101FA800F0B4860746D0541E002A3CD0CAB2034675
:101FB80001E0013C37D303F8012B9D07F9D1032C2D
:101FC8002AD9CDB245EA05250F2C45EA054534D96D
:101FD800A4F1100222F00F0C03F120071609674440
:101FE80003F1100242E9045542E902551032BA429F
:101FF800F8D1721C14F00C0F03EB021204F00F0658
:1020080013D0331F23F003030433134442F8045B53
:102018009342FBD106F003042CB1CAB21C4403F866
:10202800012B9C42FBD1F0BC704734461346002C70
:10203800F3D1F8E714460346C1E71A462646E0E717
:10204800024B13B1024800F005B8704700000000C9
:1020580069200008002301461A46184600F01AB8FD
:1020680038B5084B084D5B1B9C1007D0043B1D443A
:10207800013C55F804399847002CF9D1BDE838409F
:1020880000F054B8702100086C210008704700BFA8
:10209800704700BF2DE9F047DFF880A00646DAF860
:1020A800000098460F469146FFF7F0FF1A4B1B6851
:1020B800D3F8484124B365681F2D26DC5EB9AB1CF4
:1020C8000135DAF80000656044F82370FFF7E0FF97
:1020D8000020BDE8F08704EB85030121C3F8889050
:1020E800D4F88821A9400A43022EC4F88821C3F8ED
:1020F8000881E4D1D4F88C311943C4F88C11DEE797
:1021080003F5A674C3F84841D5E7DAF80000FFF7ED
:10211800BFFF4FF0FF30DCE75821000838040020EB
:10212800F8B500BFF8BC08BC9E467047F8B500BFBC
:08213800F8BC08BC9E4670478C
:102140000000000000000000010203040607080967
:0C21500000000000010203041000002049
:08215C009CE0FF7F0100000080
:0821640049200008AD0100084C
:04216C0089010008DD
:1021700010000000010000000024F4000000000036
:1021800000000000FC02002064030020CC030020BB
:10219000000000000000000000000000000000003F
:1021A000000000000000000000000000000000002F
:1021B000000000000000000000000000000000001F
:1021C000000000000000000000000000000000000F
:1021D00000000000000000000000000000000000FF
:1021E00000000000000000000000000000000000EF
:1021F00000000000000000000000000000000000DF
:1022000000000000000000000000000000000000CE
:1022100000000000000000000000000000000000BE
:1022200000000000000000000100000000000000AD
:102230000E33CDAB34126DE6ECDE05000B00000072
:10224000000000000000000000000000000000008E
:10225000000000000000000000000000000000007E
:10226000000000000000000000000000000000006E
:10227000000000000000000000000000000000005E
:0C25A000000000000000000060040020AB
:0400000508001F0DC3
:00000001FF
